8=FIX.4.4|9=78|35=A|34=1|49=IPETKOV1|52=20241117-00:51:28.000|56=EXCHANGE1|98=0|108=30|141=Y|10=235|
8=FIX.4.4|9=78|35=A|34=1|49=EXCHANGE1|52=20241117-00:51:28.834|56=IPETKOV1|98=0|108=30|141=Y|10=250|
8=FIX.4.4|9=60|35=0|34=2|49=IPETKOV1|52=20241117-00:51:58.000|56=EXCHANGE1|10=143|
8=FIX.4.4|9=60|35=0|34=2|49=EXCHANGE1|52=20241117-00:51:59.120|56=IPETKOV1|10=147|
8=FIX.4.4|9=60|35=0|34=3|49=IPETKOV1|52=20241117-00:52:28.000|56=EXCHANGE1|10=142|
8=FIX.4.4|9=60|35=0|34=3|49=EXCHANGE1|52=20241117-00:52:29.119|56=IPETKOV1|10=154|
8=FIX.4.4|9=78|35=A|34=1|49=IPETKOV1|52=20241117-00:53:08.000|56=EXCHANGE1|98=0|108=30|141=Y|10=235|
8=FIX.4.4|9=78|35=A|34=1|49=EXCHANGE1|52=20241117-00:53:08.546|56=IPETKOV1|98=0|108=30|141=Y|10=250|
8=FIX.4.4|9=60|35=0|34=2|49=IPETKOV1|52=20241117-00:53:38.000|56=EXCHANGE1|10=143|
8=FIX.4.4|9=60|35=0|34=2|49=EXCHANGE1|52=20241117-00:53:38.645|56=IPETKOV1|10=158|
8=FIX.4.4|9=78|35=A|34=1|49=IPETKOV1|52=20241117-00:55:34.000|56=EXCHANGE1|98=0|108=30|141=Y|10=236|
8=FIX.4.4|9=78|35=A|34=1|49=EXCHANGE1|52=20241117-00:55:34.779|56=IPETKOV1|98=0|108=30|141=Y|10=003|
8=FIX.4.4|9=60|35=0|34=2|49=IPETKOV1|52=20241117-00:56:04.000|56=EXCHANGE1|10=139|
8=FIX.4.4|9=60|35=0|34=2|49=EXCHANGE1|52=20241117-00:56:05.123|56=IPETKOV1|10=146|
8=FIX.4.4|9=60|35=0|34=3|49=IPETKOV1|52=20241117-00:56:34.000|56=EXCHANGE1|10=143|
8=FIX.4.4|9=60|35=0|34=3|49=EXCHANGE1|52=20241117-00:56:35.124|56=IPETKOV1|10=151|
8=FIX.4.4|9=60|35=0|34=4|49=IPETKOV1|52=20241117-00:57:04.000|56=EXCHANGE1|10=142|
8=FIX.4.4|9=60|35=0|34=4|49=EXCHANGE1|52=20241117-00:57:05.122|56=IPETKOV1|10=148|
8=FIX.4.4|9=60|35=0|34=5|49=IPETKOV1|52=20241117-00:57:34.000|56=EXCHANGE1|10=146|
8=FIX.4.4|9=60|35=0|34=5|49=EXCHANGE1|52=20241117-00:57:35.124|56=IPETKOV1|10=154|
8=FIX.4.4|9=60|35=0|34=6|49=IPETKOV1|52=20241117-00:58:04.000|56=EXCHANGE1|10=145|
8=FIX.4.4|9=60|35=0|34=6|49=EXCHANGE1|52=20241117-00:58:05.122|56=IPETKOV1|10=151|
8=FIX.4.4|9=60|35=0|34=7|49=IPETKOV1|52=20241117-00:58:34.000|56=EXCHANGE1|10=149|
8=FIX.4.4|9=60|35=0|34=7|49=EXCHANGE1|52=20241117-00:58:35.122|56=IPETKOV1|10=155|
8=FIX.4.4|9=78|35=A|34=1|49=IPETKOV1|52=20241117-00:58:55.000|56=EXCHANGE1|98=0|108=30|141=Y|10=242|
8=FIX.4.4|9=78|35=A|34=1|49=EXCHANGE1|52=20241117-00:58:55.391|56=IPETKOV1|98=0|108=30|141=Y|10=255|
8=FIX.4.4|9=106|35=D|34=2|49=IPETKOV1|52=20241117-00:58:58.000|56=EXCHANGE1|11=ORDER12345|38=100|40=2|44=150|54=1|55=AAPL|10=222|
8=FIX.4.4|9=118|35=3|34=2|49=EXCHANGE1|52=20241117-00:58:58.973|56=IPETKOV1|45=2|58=Required tag missing, field=60|371=60|372=D|373=1|10=119|
8=FIX.4.4|9=60|35=5|34=3|49=IPETKOV1|52=20241117-00:59:04.000|56=EXCHANGE1|10=148|
8=FIX.4.4|9=60|35=5|34=3|49=EXCHANGE1|52=20241117-00:59:04.795|56=IPETKOV1|10=169|
8=FIX.4.4|9=78|35=A|34=1|49=IPETKOV1|52=20241117-01:03:17.000|56=EXCHANGE1|98=0|108=30|141=Y|10=231|
8=FIX.4.4|9=78|35=A|34=1|49=EXCHANGE1|52=20241117-01:03:17.728|56=IPETKOV1|98=0|108=30|141=Y|10=248|
8=FIX.4.4|9=78|35=A|34=1|49=IPETKOV1|52=20241117-01:03:40.000|56=EXCHANGE1|98=0|108=30|141=Y|10=227|
8=FIX.4.4|9=78|35=A|34=1|49=EXCHANGE1|52=20241117-01:03:40.150|56=IPETKOV1|98=0|108=30|141=Y|10=233|
8=FIX.4.4|9=60|35=0|34=2|49=IPETKOV1|52=20241117-01:04:10.000|56=EXCHANGE1|10=130|
8=FIX.4.4|9=60|35=0|34=2|49=EXCHANGE1|52=20241117-01:04:10.969|56=IPETKOV1|10=154|
8=FIX.4.4|9=60|35=0|34=3|49=IPETKOV1|52=20241117-01:04:40.000|56=EXCHANGE1|10=134|
8=FIX.4.4|9=60|35=0|34=3|49=EXCHANGE1|52=20241117-01:04:41.109|56=IPETKOV1|10=145|
8=FIX.4.4|9=78|35=A|34=1|49=IPETKOV1|52=20241117-01:04:49.000|56=EXCHANGE1|98=0|108=30|141=Y|10=237|
8=FIX.4.4|9=78|35=A|34=1|49=EXCHANGE1|52=20241117-01:04:49.579|56=IPETKOV1|98=0|108=30|141=Y|10=002|
8=FIX.4.4|9=131|35=D|34=2|49=IPETKOV1|52=20241117-01:04:51.000|56=EXCHANGE1|60=20241117-01:04:51.846|11=ORDER12345|38=100|40=2|44=150|54=1|55=AAPL|10=159|
8=FIX.4.4|9=113|35=8|34=2|49=EXCHANGE1|52=20241117-01:04:51.944|56=IPETKOV1|6=150|14=100|17=54321|37=12345|39=2|54=1|150=0|151=0|10=022|
8=FIX.4.4|9=60|35=0|34=3|49=IPETKOV1|52=20241117-01:05:21.000|56=EXCHANGE1|10=134|
8=FIX.4.4|9=60|35=0|34=3|49=EXCHANGE1|52=20241117-01:05:22.109|56=IPETKOV1|10=145|
8=FIX.4.4|9=60|35=0|34=4|49=IPETKOV1|52=20241117-01:05:51.000|56=EXCHANGE1|10=138|
8=FIX.4.4|9=60|35=0|34=4|49=EXCHANGE1|52=20241117-01:05:52.107|56=IPETKOV1|10=147|
8=FIX.4.4|9=60|35=0|34=5|49=IPETKOV1|52=20241117-01:06:21.000|56=EXCHANGE1|10=137|
8=FIX.4.4|9=60|35=0|34=5|49=EXCHANGE1|52=20241117-01:06:22.107|56=IPETKOV1|10=146|
8=FIX.4.4|9=60|35=0|34=6|49=IPETKOV1|52=20241117-01:06:51.000|56=EXCHANGE1|10=141|
8=FIX.4.4|9=60|35=0|34=6|49=EXCHANGE1|52=20241117-01:06:52.106|56=IPETKOV1|10=149|
8=FIX.4.4|9=60|35=0|34=7|49=IPETKOV1|52=20241117-01:07:21.000|56=EXCHANGE1|10=140|
8=FIX.4.4|9=60|35=0|34=7|49=EXCHANGE1|52=20241117-01:07:22.109|56=IPETKOV1|10=151|
8=FIX.4.4|9=60|35=0|34=8|49=IPETKOV1|52=20241117-01:07:51.000|56=EXCHANGE1|10=144|
8=FIX.4.4|9=60|35=0|34=8|49=EXCHANGE1|52=20241117-01:07:52.108|56=IPETKOV1|10=154|
8=FIX.4.4|9=60|35=0|34=9|49=IPETKOV1|52=20241117-01:08:21.000|56=EXCHANGE1|10=143|
8=FIX.4.4|9=60|35=0|34=9|49=EXCHANGE1|52=20241117-01:08:22.107|56=IPETKOV1|10=152|
8=FIX.4.4|9=61|35=0|34=10|49=IPETKOV1|52=20241117-01:08:51.000|56=EXCHANGE1|10=187|
8=FIX.4.4|9=61|35=0|34=10|49=EXCHANGE1|52=20241117-01:08:52.108|56=IPETKOV1|10=197|
8=FIX.4.4|9=61|35=0|34=11|49=IPETKOV1|52=20241117-01:09:21.000|56=EXCHANGE1|10=186|
8=FIX.4.4|9=61|35=0|34=11|49=EXCHANGE1|52=20241117-01:09:22.109|56=IPETKOV1|10=197|
8=FIX.4.4|9=61|35=0|34=12|49=IPETKOV1|52=20241117-01:09:51.000|56=EXCHANGE1|10=190|
8=FIX.4.4|9=61|35=0|34=12|49=EXCHANGE1|52=20241117-01:09:52.108|56=IPETKOV1|10=200|
8=FIX.4.4|9=61|35=0|34=13|49=IPETKOV1|52=20241117-01:10:21.000|56=EXCHANGE1|10=180|
8=FIX.4.4|9=61|35=0|34=13|49=EXCHANGE1|52=20241117-01:10:22.107|56=IPETKOV1|10=189|
8=FIX.4.4|9=61|35=0|34=14|49=IPETKOV1|52=20241117-01:10:51.000|56=EXCHANGE1|10=184|
8=FIX.4.4|9=61|35=0|34=14|49=EXCHANGE1|52=20241117-01:10:52.112|56=IPETKOV1|10=189|
8=FIX.4.4|9=61|35=0|34=15|49=IPETKOV1|52=20241117-01:11:21.000|56=EXCHANGE1|10=183|
8=FIX.4.4|9=61|35=0|34=15|49=EXCHANGE1|52=20241117-01:11:22.113|56=IPETKOV1|10=189|
8=FIX.4.4|9=61|35=0|34=16|49=IPETKOV1|52=20241117-01:11:51.000|56=EXCHANGE1|10=187|
8=FIX.4.4|9=61|35=0|34=16|49=EXCHANGE1|52=20241117-01:11:52.114|56=IPETKOV1|10=194|
8=FIX.4.4|9=61|35=0|34=17|49=IPETKOV1|52=20241117-01:12:21.000|56=EXCHANGE1|10=186|
8=FIX.4.4|9=61|35=0|34=17|49=EXCHANGE1|52=20241117-01:12:22.112|56=IPETKOV1|10=191|
8=FIX.4.4|9=61|35=0|34=18|49=IPETKOV1|52=20241117-01:12:51.000|56=EXCHANGE1|10=190|
8=FIX.4.4|9=61|35=0|34=18|49=EXCHANGE1|52=20241117-01:12:52.114|56=IPETKOV1|10=197|
8=FIX.4.4|9=61|35=0|34=19|49=IPETKOV1|52=20241117-01:13:21.000|56=EXCHANGE1|10=189|
8=FIX.4.4|9=61|35=0|34=19|49=EXCHANGE1|52=20241117-01:13:22.112|56=IPETKOV1|10=194|
8=FIX.4.4|9=61|35=0|34=20|49=IPETKOV1|52=20241117-01:13:51.000|56=EXCHANGE1|10=184|
8=FIX.4.4|9=61|35=0|34=20|49=EXCHANGE1|52=20241117-01:13:52.109|56=IPETKOV1|10=195|
8=FIX.4.4|9=61|35=5|34=21|49=EXCHANGE1|52=20241117-01:14:01.112|56=IPETKOV1|10=190|
8=FIX.4.4|9=61|35=5|34=21|49=IPETKOV1|52=20241117-01:14:01.000|56=EXCHANGE1|10=186|
