8=FIX.4.4|9=77|35=A|34=1|49=TRADER1|52=20241116-17:58:45.000|56=EXCHANGE1|98=0|108=30|141=Y|10=151|
8=FIX.4.4|9=77|35=A|34=1|49=EXCHANGE1|52=20241116-17:58:45.239|56=TRADER1|98=0|108=30|141=Y|10=165|
8=FIX.4.4|9=59|35=0|34=2|49=TRADER1|52=20241116-17:59:15.000|56=EXCHANGE1|10=063|
8=FIX.4.4|9=59|35=0|34=2|49=EXCHANGE1|52=20241116-17:59:15.325|56=TRADER1|10=073|
8=FIX.4.4|9=59|35=0|34=3|49=TRADER1|52=20241116-17:59:45.000|56=EXCHANGE1|10=067|
8=FIX.4.4|9=59|35=0|34=3|49=EXCHANGE1|52=20241116-17:59:45.665|56=TRADER1|10=084|
8=FIX.4.4|9=77|35=A|34=1|49=TRADER1|52=20241116-18:00:03.000|56=EXCHANGE1|98=0|108=30|141=Y|10=133|
8=FIX.4.4|9=77|35=A|34=1|49=EXCHANGE1|52=20241116-18:00:03.425|56=TRADER1|98=0|108=30|141=Y|10=144|
8=FIX.4.4|9=105|35=D|34=2|49=TRADER1|52=20241116-18:00:31.000|56=EXCHANGE1|11=ORDER12345|38=100|40=2|44=150|54=1|55=AAPL|10=111|
8=FIX.4.4|9=117|35=3|34=2|49=EXCHANGE1|52=20241116-18:00:31.422|56=TRADER1|45=2|58=Required tag missing, field=60|371=60|372=D|373=1|10=253|
8=FIX.4.4|9=68|35=1|34=3|49=EXCHANGE1|52=20241116-18:00:48.670|56=TRADER1|112=TEST|10=089|
8=FIX.4.4|9=68|35=0|34=3|49=TRADER1|52=20241116-18:00:48.000|56=EXCHANGE1|112=TEST|10=075|
8=FIX.4.4|9=59|35=0|34=4|49=TRADER1|52=20241116-18:01:18.000|56=EXCHANGE1|10=056|
8=FIX.4.4|9=59|35=0|34=4|49=EXCHANGE1|52=20241116-18:01:18.672|56=TRADER1|10=071|
8=FIX.4.4|9=59|35=0|34=5|49=EXCHANGE1|52=20241116-18:01:48.671|56=TRADER1|10=074|
8=FIX.4.4|9=59|35=0|34=5|49=TRADER1|52=20241116-18:01:48.000|56=EXCHANGE1|10=060|
8=FIX.4.4|9=59|35=0|34=6|49=TRADER1|52=20241116-18:02:18.000|56=EXCHANGE1|10=059|
8=FIX.4.4|9=59|35=0|34=6|49=EXCHANGE1|52=20241116-18:02:18.674|56=TRADER1|10=076|
8=FIX.4.4|9=59|35=0|34=7|49=TRADER1|52=20241116-18:02:48.000|56=EXCHANGE1|10=063|
8=FIX.4.4|9=59|35=0|34=7|49=EXCHANGE1|52=20241116-18:02:48.674|56=TRADER1|10=080|
8=FIX.4.4|9=59|35=0|34=8|49=EXCHANGE1|52=20241116-18:03:18.674|56=TRADER1|10=079|
8=FIX.4.4|9=59|35=0|34=8|49=TRADER1|52=20241116-18:03:18.000|56=EXCHANGE1|10=062|
8=FIX.4.4|9=59|35=0|34=9|49=TRADER1|52=20241116-18:03:48.000|56=EXCHANGE1|10=066|
8=FIX.4.4|9=59|35=0|34=9|49=EXCHANGE1|52=20241116-18:03:48.674|56=TRADER1|10=083|
8=FIX.4.4|9=60|35=0|34=10|49=TRADER1|52=20241116-18:04:18.000|56=EXCHANGE1|10=096|
8=FIX.4.4|9=60|35=0|34=10|49=EXCHANGE1|52=20241116-18:04:18.671|56=TRADER1|10=110|
8=FIX.4.4|9=60|35=0|34=11|49=EXCHANGE1|52=20241116-18:04:48.675|56=TRADER1|10=118|
8=FIX.4.4|9=60|35=0|34=11|49=TRADER1|52=20241116-18:04:48.000|56=EXCHANGE1|10=100|
8=FIX.4.4|9=60|35=0|34=12|49=TRADER1|52=20241116-18:05:18.000|56=EXCHANGE1|10=099|
8=FIX.4.4|9=60|35=0|34=12|49=EXCHANGE1|52=20241116-18:05:18.671|56=TRADER1|10=113|
8=FIX.4.4|9=60|35=0|34=13|49=TRADER1|52=20241116-18:05:48.000|56=EXCHANGE1|10=103|
8=FIX.4.4|9=60|35=0|34=13|49=EXCHANGE1|52=20241116-18:05:48.680|56=TRADER1|10=117|
8=FIX.4.4|9=60|35=0|34=14|49=TRADER1|52=20241116-18:06:18.000|56=EXCHANGE1|10=102|
8=FIX.4.4|9=60|35=0|34=14|49=EXCHANGE1|52=20241116-18:06:18.676|56=TRADER1|10=121|
8=FIX.4.4|9=60|35=0|34=15|49=TRADER1|52=20241116-18:06:48.000|56=EXCHANGE1|10=106|
8=FIX.4.4|9=60|35=0|34=15|49=EXCHANGE1|52=20241116-18:06:48.680|56=TRADER1|10=120|
8=FIX.4.4|9=60|35=0|34=16|49=TRADER1|52=20241116-18:07:18.000|56=EXCHANGE1|10=105|
8=FIX.4.4|9=60|35=0|34=16|49=EXCHANGE1|52=20241116-18:07:18.672|56=TRADER1|10=120|
8=FIX.4.4|9=60|35=0|34=17|49=TRADER1|52=20241116-18:07:48.000|56=EXCHANGE1|10=109|
8=FIX.4.4|9=60|35=0|34=17|49=EXCHANGE1|52=20241116-18:07:48.680|56=TRADER1|10=123|
8=FIX.4.4|9=60|35=0|34=18|49=TRADER1|52=20241116-18:08:18.000|56=EXCHANGE1|10=108|
8=FIX.4.4|9=60|35=0|34=18|49=EXCHANGE1|52=20241116-18:08:18.680|56=TRADER1|10=122|
8=FIX.4.4|9=60|35=0|34=19|49=TRADER1|52=20241116-18:08:48.000|56=EXCHANGE1|10=112|
8=FIX.4.4|9=60|35=0|34=19|49=EXCHANGE1|52=20241116-18:08:48.680|56=TRADER1|10=126|
8=FIX.4.4|9=60|35=0|34=20|49=TRADER1|52=20241116-18:09:18.000|56=EXCHANGE1|10=102|
8=FIX.4.4|9=60|35=0|34=20|49=EXCHANGE1|52=20241116-18:09:18.680|56=TRADER1|10=116|
8=FIX.4.4|9=60|35=0|34=21|49=TRADER1|52=20241116-18:09:48.000|56=EXCHANGE1|10=106|
8=FIX.4.4|9=60|35=0|34=21|49=EXCHANGE1|52=20241116-18:09:48.675|56=TRADER1|10=124|
8=FIX.4.4|9=60|35=0|34=22|49=TRADER1|52=20241116-18:10:18.000|56=EXCHANGE1|10=096|
8=FIX.4.4|9=60|35=0|34=22|49=EXCHANGE1|52=20241116-18:10:18.679|56=TRADER1|10=118|
8=FIX.4.4|9=60|35=0|34=23|49=TRADER1|52=20241116-18:10:48.000|56=EXCHANGE1|10=100|
8=FIX.4.4|9=60|35=0|34=23|49=EXCHANGE1|52=20241116-18:10:48.681|56=TRADER1|10=115|
8=FIX.4.4|9=60|35=0|34=24|49=TRADER1|52=20241116-18:11:18.000|56=EXCHANGE1|10=099|
8=FIX.4.4|9=60|35=0|34=24|49=EXCHANGE1|52=20241116-18:11:18.679|56=TRADER1|10=121|
8=FIX.4.4|9=60|35=0|34=25|49=TRADER1|52=20241116-18:11:48.000|56=EXCHANGE1|10=103|
8=FIX.4.4|9=60|35=0|34=25|49=EXCHANGE1|52=20241116-18:11:48.681|56=TRADER1|10=118|
8=FIX.4.4|9=60|35=0|34=26|49=TRADER1|52=20241116-18:12:18.000|56=EXCHANGE1|10=102|
8=FIX.4.4|9=60|35=0|34=26|49=EXCHANGE1|52=20241116-18:12:18.675|56=TRADER1|10=120|
8=FIX.4.4|9=60|35=0|34=27|49=TRADER1|52=20241116-18:12:48.000|56=EXCHANGE1|10=106|
8=FIX.4.4|9=60|35=0|34=27|49=EXCHANGE1|52=20241116-18:12:48.674|56=TRADER1|10=123|
8=FIX.4.4|9=60|35=0|34=28|49=TRADER1|52=20241116-18:13:18.000|56=EXCHANGE1|10=105|
8=FIX.4.4|9=60|35=0|34=28|49=EXCHANGE1|52=20241116-18:13:18.681|56=TRADER1|10=120|
8=FIX.4.4|9=60|35=0|34=29|49=TRADER1|52=20241116-18:13:48.000|56=EXCHANGE1|10=109|
8=FIX.4.4|9=60|35=0|34=29|49=EXCHANGE1|52=20241116-18:13:48.681|56=TRADER1|10=124|
8=FIX.4.4|9=60|35=0|34=30|49=TRADER1|52=20241116-18:14:18.000|56=EXCHANGE1|10=099|
8=FIX.4.4|9=60|35=0|34=30|49=EXCHANGE1|52=20241116-18:14:18.681|56=TRADER1|10=114|
8=FIX.4.4|9=60|35=0|34=31|49=TRADER1|52=20241116-18:14:48.000|56=EXCHANGE1|10=103|
8=FIX.4.4|9=60|35=0|34=31|49=EXCHANGE1|52=20241116-18:14:48.676|56=TRADER1|10=122|
8=FIX.4.4|9=60|35=0|34=32|49=TRADER1|52=20241116-18:15:18.000|56=EXCHANGE1|10=102|
8=FIX.4.4|9=60|35=0|34=32|49=EXCHANGE1|52=20241116-18:15:18.677|56=TRADER1|10=122|
8=FIX.4.4|9=106|35=D|34=33|49=TRADER1|52=20241116-18:15:45.000|56=EXCHANGE1|11=ORDER12345|38=100|40=2|44=150|54=1|55=AAPL|10=175|
8=FIX.4.4|9=119|35=3|34=33|49=EXCHANGE1|52=20241116-18:15:45.360|56=TRADER1|45=33|58=Required tag missing, field=60|371=60|372=D|373=1|10=115|
8=FIX.4.4|9=69|35=1|34=34|49=EXCHANGE1|52=20241116-18:16:03.672|56=TRADER1|112=TEST|10=142|
8=FIX.4.4|9=69|35=0|34=34|49=TRADER1|52=20241116-18:16:03.000|56=EXCHANGE1|112=TEST|10=126|
8=FIX.4.4|9=60|35=0|34=35|49=TRADER1|52=20241116-18:16:33.000|56=EXCHANGE1|10=103|
8=FIX.4.4|9=60|35=0|34=35|49=EXCHANGE1|52=20241116-18:16:33.677|56=TRADER1|10=123|
8=FIX.4.4|9=60|35=0|34=36|49=TRADER1|52=20241116-18:17:03.000|56=EXCHANGE1|10=102|
8=FIX.4.4|9=60|35=0|34=36|49=EXCHANGE1|52=20241116-18:17:03.677|56=TRADER1|10=122|
8=FIX.4.4|9=60|35=0|34=37|49=TRADER1|52=20241116-18:17:33.000|56=EXCHANGE1|10=106|
8=FIX.4.4|9=60|35=0|34=37|49=EXCHANGE1|52=20241116-18:17:33.677|56=TRADER1|10=126|
8=FIX.4.4|9=60|35=0|34=38|49=TRADER1|52=20241116-18:18:03.000|56=EXCHANGE1|10=105|
8=FIX.4.4|9=60|35=0|34=38|49=EXCHANGE1|52=20241116-18:18:03.677|56=TRADER1|10=125|
8=FIX.4.4|9=60|35=0|34=39|49=TRADER1|52=20241116-18:18:33.000|56=EXCHANGE1|10=109|
8=FIX.4.4|9=60|35=0|34=39|49=EXCHANGE1|52=20241116-18:18:33.677|56=TRADER1|10=129|
8=FIX.4.4|9=60|35=0|34=40|49=TRADER1|52=20241116-18:19:03.000|56=EXCHANGE1|10=099|
8=FIX.4.4|9=60|35=0|34=40|49=EXCHANGE1|52=20241116-18:19:03.673|56=TRADER1|10=115|
8=FIX.4.4|9=60|35=0|34=41|49=TRADER1|52=20241116-18:19:33.000|56=EXCHANGE1|10=103|
8=FIX.4.4|9=60|35=0|34=41|49=EXCHANGE1|52=20241116-18:19:33.677|56=TRADER1|10=123|
8=FIX.4.4|9=60|35=0|34=42|49=TRADER1|52=20241116-18:20:03.000|56=EXCHANGE1|10=093|
8=FIX.4.4|9=60|35=0|34=42|49=EXCHANGE1|52=20241116-18:20:03.674|56=TRADER1|10=110|
8=FIX.4.4|9=60|35=0|34=43|49=TRADER1|52=20241116-18:20:33.000|56=EXCHANGE1|10=097|
8=FIX.4.4|9=60|35=0|34=43|49=EXCHANGE1|52=20241116-18:20:33.675|56=TRADER1|10=115|
8=FIX.4.4|9=60|35=0|34=44|49=TRADER1|52=20241116-18:21:03.000|56=EXCHANGE1|10=096|
8=FIX.4.4|9=60|35=0|34=44|49=EXCHANGE1|52=20241116-18:21:03.674|56=TRADER1|10=113|
8=FIX.4.4|9=60|35=0|34=45|49=TRADER1|52=20241116-18:21:33.000|56=EXCHANGE1|10=100|
8=FIX.4.4|9=60|35=0|34=45|49=EXCHANGE1|52=20241116-18:21:33.678|56=TRADER1|10=121|
8=FIX.4.4|9=60|35=0|34=46|49=TRADER1|52=20241116-18:22:03.000|56=EXCHANGE1|10=099|
8=FIX.4.4|9=60|35=0|34=46|49=EXCHANGE1|52=20241116-18:22:03.677|56=TRADER1|10=119|
8=FIX.4.4|9=60|35=0|34=47|49=TRADER1|52=20241116-18:22:33.000|56=EXCHANGE1|10=103|
8=FIX.4.4|9=60|35=0|34=47|49=EXCHANGE1|52=20241116-18:22:33.677|56=TRADER1|10=123|
8=FIX.4.4|9=60|35=0|34=48|49=TRADER1|52=20241116-18:23:03.000|56=EXCHANGE1|10=102|
8=FIX.4.4|9=60|35=0|34=48|49=EXCHANGE1|52=20241116-18:23:04.660|56=TRADER1|10=115|
8=FIX.4.4|9=60|35=0|34=49|49=TRADER1|52=20241116-18:23:33.000|56=EXCHANGE1|10=106|
8=FIX.4.4|9=60|35=0|34=49|49=EXCHANGE1|52=20241116-18:23:34.656|56=TRADER1|10=124|
8=FIX.4.4|9=60|35=0|34=50|49=TRADER1|52=20241116-18:24:03.000|56=EXCHANGE1|10=096|
8=FIX.4.4|9=60|35=0|34=50|49=EXCHANGE1|52=20241116-18:24:04.656|56=TRADER1|10=114|
8=FIX.4.4|9=60|35=0|34=51|49=TRADER1|52=20241116-18:24:33.000|56=EXCHANGE1|10=100|
8=FIX.4.4|9=60|35=0|34=51|49=EXCHANGE1|52=20241116-18:24:34.656|56=TRADER1|10=118|
8=FIX.4.4|9=60|35=0|34=52|49=TRADER1|52=20241116-18:25:03.000|56=EXCHANGE1|10=099|
8=FIX.4.4|9=60|35=0|34=52|49=EXCHANGE1|52=20241116-18:25:04.653|56=TRADER1|10=114|
8=FIX.4.4|9=60|35=0|34=53|49=TRADER1|52=20241116-18:25:33.000|56=EXCHANGE1|10=103|
8=FIX.4.4|9=60|35=0|34=53|49=EXCHANGE1|52=20241116-18:25:34.655|56=TRADER1|10=120|
8=FIX.4.4|9=60|35=0|34=54|49=TRADER1|52=20241116-18:26:03.000|56=EXCHANGE1|10=102|
8=FIX.4.4|9=60|35=0|34=54|49=EXCHANGE1|52=20241116-18:26:04.653|56=TRADER1|10=117|
8=FIX.4.4|9=60|35=0|34=55|49=TRADER1|52=20241116-18:26:33.000|56=EXCHANGE1|10=106|
8=FIX.4.4|9=60|35=0|34=55|49=EXCHANGE1|52=20241116-18:26:34.655|56=TRADER1|10=123|
8=FIX.4.4|9=60|35=0|34=56|49=TRADER1|52=20241116-18:27:03.000|56=EXCHANGE1|10=105|
8=FIX.4.4|9=60|35=0|34=56|49=EXCHANGE1|52=20241116-18:27:04.653|56=TRADER1|10=120|
8=FIX.4.4|9=60|35=0|34=57|49=TRADER1|52=20241116-18:27:33.000|56=EXCHANGE1|10=109|
8=FIX.4.4|9=60|35=0|34=57|49=EXCHANGE1|52=20241116-18:27:34.652|56=TRADER1|10=123|
8=FIX.4.4|9=60|35=0|34=58|49=TRADER1|52=20241116-18:28:03.000|56=EXCHANGE1|10=108|
8=FIX.4.4|9=60|35=0|34=58|49=EXCHANGE1|52=20241116-18:28:04.652|56=TRADER1|10=122|
8=FIX.4.4|9=60|35=0|34=59|49=TRADER1|52=20241116-18:28:33.000|56=EXCHANGE1|10=112|
8=FIX.4.4|9=60|35=0|34=59|49=EXCHANGE1|52=20241116-18:28:34.654|56=TRADER1|10=128|
8=FIX.4.4|9=131|35=D|34=60|49=TRADER1|52=20241116-18:28:57.000|56=EXCHANGE1|60=20241116-18:28:57.206|11=ORDER12345|38=100|40=2|44=150|54=1|55=AAPL|10=143|
8=FIX.4.4|9=113|35=8|34=60|49=EXCHANGE1|52=20241116-18:28:57.223|56=TRADER1|6=150|14=100|17=54321|37=12345|39=2|54=1|150=2|151=0|10=245|
8=FIX.4.4|9=136|35=3|34=61|49=TRADER1|52=20241116-18:28:57.000|56=EXCHANGE1|45=60|58=Value is incorrect (out of range) for this tag|371=150|372=8|373=5|10=087|
8=FIX.4.4|9=69|35=1|34=62|49=TRADER1|52=20241116-18:29:10.000|56=EXCHANGE1|112=TEST|10=130|
8=FIX.4.4|9=69|35=0|34=61|49=EXCHANGE1|52=20241116-18:29:10.737|56=TRADER1|112=TEST|10=145|
8=FIX.4.4|9=60|35=0|34=63|49=TRADER1|52=20241116-18:29:40.000|56=EXCHANGE1|10=106|
8=FIX.4.4|9=60|35=0|34=62|49=EXCHANGE1|52=20241116-18:29:41.655|56=TRADER1|10=122|
8=FIX.4.4|9=60|35=0|34=64|49=TRADER1|52=20241116-18:30:10.000|56=EXCHANGE1|10=096|
8=FIX.4.4|9=60|35=0|34=63|49=EXCHANGE1|52=20241116-18:30:11.650|56=TRADER1|10=107|
8=FIX.4.4|9=60|35=0|34=65|49=TRADER1|52=20241116-18:30:40.000|56=EXCHANGE1|10=100|
8=FIX.4.4|9=60|35=0|34=64|49=EXCHANGE1|52=20241116-18:30:41.654|56=TRADER1|10=115|
8=FIX.4.4|9=60|35=0|34=66|49=TRADER1|52=20241116-18:31:10.000|56=EXCHANGE1|10=099|
8=FIX.4.4|9=60|35=0|34=65|49=EXCHANGE1|52=20241116-18:31:11.650|56=TRADER1|10=110|
8=FIX.4.4|9=60|35=0|34=67|49=TRADER1|52=20241116-18:31:40.000|56=EXCHANGE1|10=103|
8=FIX.4.4|9=60|35=0|34=66|49=EXCHANGE1|52=20241116-18:31:41.654|56=TRADER1|10=118|
8=FIX.4.4|9=131|35=D|34=68|49=TRADER1|52=20241116-18:31:50.000|56=EXCHANGE1|60=20241116-18:31:50.773|11=ORDER12345|38=100|40=2|44=150|54=1|55=AAPL|10=134|
8=FIX.4.4|9=113|35=8|34=67|49=EXCHANGE1|52=20241116-18:31:50.776|56=TRADER1|6=150|14=100|17=54321|37=12345|39=2|54=1|150=2|151=0|10=252|
8=FIX.4.4|9=136|35=3|34=69|49=TRADER1|52=20241116-18:31:50.000|56=EXCHANGE1|45=67|58=Value is incorrect (out of range) for this tag|371=150|372=8|373=5|10=089|
8=FIX.4.4|9=69|35=1|34=70|49=TRADER1|52=20241116-18:32:17.000|56=EXCHANGE1|112=TEST|10=130|
8=FIX.4.4|9=69|35=0|34=68|49=EXCHANGE1|52=20241116-18:32:17.479|56=TRADER1|112=TEST|10=156|
8=FIX.4.4|9=60|35=0|34=71|49=TRADER1|52=20241116-18:32:47.000|56=EXCHANGE1|10=106|
8=FIX.4.4|9=60|35=0|34=69|49=EXCHANGE1|52=20241116-18:32:47.654|56=TRADER1|10=128|
8=FIX.4.4|9=60|35=0|34=72|49=TRADER1|52=20241116-18:33:17.000|56=EXCHANGE1|10=105|
8=FIX.4.4|9=60|35=0|34=70|49=EXCHANGE1|52=20241116-18:33:17.654|56=TRADER1|10=118|
8=FIX.4.4|9=60|35=0|34=73|49=TRADER1|52=20241116-18:33:47.000|56=EXCHANGE1|10=109|
8=FIX.4.4|9=60|35=0|34=71|49=EXCHANGE1|52=20241116-18:33:47.654|56=TRADER1|10=122|
8=FIX.4.4|9=60|35=0|34=74|49=TRADER1|52=20241116-18:34:17.000|56=EXCHANGE1|10=108|
8=FIX.4.4|9=60|35=0|34=72|49=EXCHANGE1|52=20241116-18:34:17.654|56=TRADER1|10=121|
8=FIX.4.4|9=60|35=0|34=75|49=TRADER1|52=20241116-18:34:47.000|56=EXCHANGE1|10=112|
8=FIX.4.4|9=60|35=0|34=73|49=EXCHANGE1|52=20241116-18:34:47.654|56=TRADER1|10=125|
8=FIX.4.4|9=60|35=0|34=76|49=TRADER1|52=20241116-18:35:17.000|56=EXCHANGE1|10=111|
8=FIX.4.4|9=60|35=0|34=74|49=EXCHANGE1|52=20241116-18:35:17.654|56=TRADER1|10=124|
8=FIX.4.4|9=60|35=5|34=75|49=EXCHANGE1|52=20241116-18:35:28.655|56=TRADER1|10=133|
8=FIX.4.4|9=60|35=5|34=77|49=TRADER1|52=20241116-18:35:28.000|56=EXCHANGE1|10=119|
8=FIX.4.4|9=77|35=A|34=1|49=TRADER1|52=20241116-18:35:33.000|56=EXCHANGE1|98=0|108=30|141=Y|10=144|
8=FIX.4.4|9=77|35=A|34=1|49=EXCHANGE1|52=20241116-18:35:33.198|56=TRADER1|98=0|108=30|141=Y|10=162|
8=FIX.4.4|9=130|35=D|34=2|49=TRADER1|52=20241116-18:35:39.000|56=EXCHANGE1|60=20241116-18:35:39.632|11=ORDER12345|38=100|40=2|44=150|54=1|55=AAPL|10=089|
8=FIX.4.4|9=112|35=8|34=2|49=EXCHANGE1|52=20241116-18:35:39.655|56=TRADER1|6=150|14=100|17=54321|37=12345|39=2|54=1|150=0|151=0|10=197|
8=FIX.4.4|9=59|35=5|34=3|49=EXCHANGE1|52=20241116-18:35:56.332|56=TRADER1|10=077|
8=FIX.4.4|9=59|35=5|34=3|49=TRADER1|52=20241116-18:35:56.000|56=EXCHANGE1|10=069|
8=FIX.4.4|9=77|35=A|34=1|49=TRADER1|52=20241116-18:36:03.000|56=EXCHANGE1|98=0|108=30|141=Y|10=142|
8=FIX.4.4|9=77|35=A|34=1|49=EXCHANGE1|52=20241116-18:36:03.101|56=TRADER1|98=0|108=30|141=Y|10=144|
8=FIX.4.4|9=130|35=D|34=2|49=TRADER1|52=20241116-18:36:07.000|56=EXCHANGE1|60=20241116-18:36:07.440|11=ORDER12345|38=100|40=2|44=150|54=1|55=AAPL|10=078|
8=FIX.4.4|9=112|35=8|34=2|49=EXCHANGE1|52=20241116-18:36:07.466|56=TRADER1|6=150|14=100|17=54321|37=12345|39=2|54=1|150=2|151=0|10=195|
8=FIX.4.4|9=134|35=3|34=3|49=TRADER1|52=20241116-18:36:07.000|56=EXCHANGE1|45=2|58=Value is incorrect (out of range) for this tag|371=150|372=8|373=5|10=231|
8=FIX.4.4|9=59|35=0|34=4|49=TRADER1|52=20241116-18:36:37.000|56=EXCHANGE1|10=065|
8=FIX.4.4|9=59|35=0|34=3|49=EXCHANGE1|52=20241116-18:36:37.676|56=TRADER1|10=083|
8=FIX.4.4|9=59|35=0|34=5|49=TRADER1|52=20241116-18:37:07.000|56=EXCHANGE1|10=064|
8=FIX.4.4|9=59|35=0|34=4|49=EXCHANGE1|52=20241116-18:37:07.673|56=TRADER1|10=079|
8=FIX.4.4|9=59|35=0|34=6|49=TRADER1|52=20241116-18:37:37.000|56=EXCHANGE1|10=068|
8=FIX.4.4|9=59|35=0|34=5|49=EXCHANGE1|52=20241116-18:37:37.674|56=TRADER1|10=084|
8=FIX.4.4|9=59|35=0|34=7|49=TRADER1|52=20241116-18:38:07.000|56=EXCHANGE1|10=067|
8=FIX.4.4|9=59|35=0|34=6|49=EXCHANGE1|52=20241116-18:38:07.676|56=TRADER1|10=085|
8=FIX.4.4|9=59|35=0|34=8|49=TRADER1|52=20241116-18:38:37.000|56=EXCHANGE1|10=071|
8=FIX.4.4|9=59|35=0|34=7|49=EXCHANGE1|52=20241116-18:38:37.672|56=TRADER1|10=085|
8=FIX.4.4|9=59|35=0|34=9|49=TRADER1|52=20241116-18:39:07.000|56=EXCHANGE1|10=070|
8=FIX.4.4|9=59|35=0|34=8|49=EXCHANGE1|52=20241116-18:39:07.676|56=TRADER1|10=088|
8=FIX.4.4|9=131|35=D|34=10|49=TRADER1|52=20241116-18:39:13.000|56=EXCHANGE1|60=20241116-18:39:13.614|11=ORDER12345|38=100|40=2|44=150|54=1|55=AAPL|10=129|
8=FIX.4.4|9=112|35=8|34=9|49=EXCHANGE1|52=20241116-18:39:13.617|56=TRADER1|6=150|14=100|17=54321|37=12345|39=2|54=1|150=2|151=0|10=200|
8=FIX.4.4|9=135|35=3|34=11|49=TRADER1|52=20241116-18:39:13.000|56=EXCHANGE1|45=9|58=Value is incorrect (out of range) for this tag|371=150|372=8|373=5|10=030|
8=FIX.4.4|9=60|35=5|34=10|49=EXCHANGE1|52=20241116-18:39:24.676|56=TRADER1|10=125|
8=FIX.4.4|9=60|35=5|34=12|49=TRADER1|52=20241116-18:39:24.000|56=EXCHANGE1|10=108|
8=FIX.4.4|9=77|35=A|34=1|49=TRADER1|52=20241116-18:39:33.000|56=EXCHANGE1|98=0|108=30|141=Y|10=148|
8=FIX.4.4|9=77|35=A|34=1|49=EXCHANGE1|52=20241116-18:39:33.035|56=TRADER1|98=0|108=30|141=Y|10=156|
8=FIX.4.4|9=130|35=D|34=2|49=TRADER1|52=20241116-18:39:49.000|56=EXCHANGE1|60=20241116-18:39:49.932|11=ORDER12345|38=100|40=2|44=150|54=1|55=AAPL|10=102|
8=FIX.4.4|9=112|35=8|34=2|49=EXCHANGE1|52=20241116-18:39:49.960|56=TRADER1|6=150|14=100|17=54321|37=12345|39=2|54=1|150=0|151=0|10=201|
8=FIX.4.4|9=59|35=0|34=3|49=TRADER1|52=20241116-18:40:19.000|56=EXCHANGE1|10=059|
8=FIX.4.4|9=59|35=0|34=3|49=EXCHANGE1|52=20241116-18:40:20.050|56=TRADER1|10=056|
8=FIX.4.4|9=59|35=0|34=4|49=TRADER1|52=20241116-18:40:49.000|56=EXCHANGE1|10=063|
8=FIX.4.4|9=59|35=0|34=4|49=EXCHANGE1|52=20241116-18:40:50.045|56=TRADER1|10=064|
8=FIX.4.4|9=59|35=0|34=5|49=TRADER1|52=20241116-18:41:19.000|56=EXCHANGE1|10=062|
8=FIX.4.4|9=59|35=0|34=5|49=EXCHANGE1|52=20241116-18:41:20.045|56=TRADER1|10=063|
8=FIX.4.4|9=59|35=0|34=6|49=TRADER1|52=20241116-18:41:49.000|56=EXCHANGE1|10=066|
8=FIX.4.4|9=59|35=0|34=6|49=EXCHANGE1|52=20241116-18:41:50.049|56=TRADER1|10=071|
8=FIX.4.4|9=59|35=0|34=7|49=TRADER1|52=20241116-18:42:19.000|56=EXCHANGE1|10=065|
8=FIX.4.4|9=59|35=0|34=7|49=EXCHANGE1|52=20241116-18:42:20.049|56=TRADER1|10=070|
8=FIX.4.4|9=59|35=0|34=8|49=TRADER1|52=20241116-18:42:49.000|56=EXCHANGE1|10=069|
8=FIX.4.4|9=59|35=0|34=8|49=EXCHANGE1|52=20241116-18:42:50.049|56=TRADER1|10=074|
8=FIX.4.4|9=59|35=0|34=9|49=TRADER1|52=20241116-18:43:19.000|56=EXCHANGE1|10=068|
8=FIX.4.4|9=59|35=0|34=9|49=EXCHANGE1|52=20241116-18:43:20.044|56=TRADER1|10=068|
8=FIX.4.4|9=60|35=0|34=10|49=TRADER1|52=20241116-18:43:49.000|56=EXCHANGE1|10=103|
8=FIX.4.4|9=60|35=0|34=10|49=EXCHANGE1|52=20241116-18:43:50.049|56=TRADER1|10=108|
8=FIX.4.4|9=60|35=0|34=11|49=TRADER1|52=20241116-18:44:19.000|56=EXCHANGE1|10=102|
8=FIX.4.4|9=60|35=0|34=11|49=EXCHANGE1|52=20241116-18:44:20.049|56=TRADER1|10=107|
8=FIX.4.4|9=60|35=0|34=12|49=TRADER1|52=20241116-18:44:49.000|56=EXCHANGE1|10=106|
8=FIX.4.4|9=60|35=0|34=12|49=EXCHANGE1|52=20241116-18:44:50.043|56=TRADER1|10=105|
8=FIX.4.4|9=60|35=0|34=13|49=TRADER1|52=20241116-18:45:19.000|56=EXCHANGE1|10=105|
8=FIX.4.4|9=60|35=0|34=13|49=EXCHANGE1|52=20241116-18:45:21.022|56=TRADER1|10=102|
8=FIX.4.4|9=77|35=A|34=1|49=TRADER1|52=20241116-18:47:15.000|56=EXCHANGE1|98=0|108=30|141=Y|10=147|
8=FIX.4.4|9=77|35=A|34=1|49=EXCHANGE1|52=20241116-18:47:15.045|56=TRADER1|98=0|108=30|141=Y|10=156|
8=FIX.4.4|9=59|35=0|34=2|49=TRADER1|52=20241116-18:47:45.000|56=EXCHANGE1|10=064|
8=FIX.4.4|9=59|35=0|34=2|49=EXCHANGE1|52=20241116-18:47:45.806|56=TRADER1|10=078|
8=FIX.4.4|9=59|35=0|34=3|49=TRADER1|52=20241116-18:48:15.000|56=EXCHANGE1|10=063|
8=FIX.4.4|9=59|35=0|34=3|49=EXCHANGE1|52=20241116-18:48:15.805|56=TRADER1|10=076|
8=FIX.4.4|9=77|35=A|34=1|49=TRADER1|52=20241116-18:51:39.000|56=EXCHANGE1|98=0|108=30|141=Y|10=148|
8=FIX.4.4|9=77|35=A|34=1|49=EXCHANGE1|52=20241116-18:51:39.314|56=TRADER1|98=0|108=30|141=Y|10=156|
8=FIX.4.4|9=77|35=A|34=1|49=TRADER1|52=20241116-19:01:05.000|56=EXCHANGE1|98=0|108=30|141=Y|10=137|
8=FIX.4.4|9=77|35=A|34=1|49=EXCHANGE1|52=20241116-19:01:05.770|56=TRADER1|98=0|108=30|141=Y|10=151|
8=FIX.4.4|9=59|35=0|34=2|49=TRADER1|52=20241116-19:01:35.000|56=EXCHANGE1|10=054|
8=FIX.4.4|9=59|35=0|34=2|49=EXCHANGE1|52=20241116-19:01:36.550|56=TRADER1|10=065|
8=FIX.4.4|9=59|35=5|34=3|49=EXCHANGE1|52=20241116-19:01:50.552|56=TRADER1|10=069|
8=FIX.4.4|9=59|35=5|34=3|49=TRADER1|52=20241116-19:01:50.000|56=EXCHANGE1|10=057|
8=FIX.4.4|9=77|35=A|34=1|49=TRADER1|52=20241116-21:26:06.000|56=EXCHANGE1|98=0|108=30|141=Y|10=138|
8=FIX.4.4|9=77|35=A|34=1|49=EXCHANGE1|52=20241116-21:26:06.355|56=TRADER1|98=0|108=30|141=Y|10=151|
8=FIX.4.4|9=59|35=0|34=2|49=TRADER1|52=20241116-21:26:36.000|56=EXCHANGE1|10=055|
8=FIX.4.4|9=59|35=0|34=2|49=EXCHANGE1|52=20241116-21:26:37.094|56=TRADER1|10=069|
8=FIX.4.4|9=59|35=0|34=3|49=TRADER1|52=20241116-21:27:06.000|56=EXCHANGE1|10=054|
8=FIX.4.4|9=59|35=0|34=3|49=EXCHANGE1|52=20241116-21:27:07.096|56=TRADER1|10=070|
8=FIX.4.4|9=59|35=0|34=4|49=TRADER1|52=20241116-21:27:36.000|56=EXCHANGE1|10=058|
8=FIX.4.4|9=59|35=0|34=4|49=EXCHANGE1|52=20241116-21:27:37.103|56=TRADER1|10=063|
8=FIX.4.4|9=59|35=0|34=5|49=TRADER1|52=20241116-21:28:06.000|56=EXCHANGE1|10=057|
8=FIX.4.4|9=59|35=0|34=5|49=EXCHANGE1|52=20241116-21:28:07.103|56=TRADER1|10=062|
8=FIX.4.4|9=59|35=0|34=6|49=TRADER1|52=20241116-21:28:36.000|56=EXCHANGE1|10=061|
8=FIX.4.4|9=59|35=0|34=6|49=EXCHANGE1|52=20241116-21:28:37.103|56=TRADER1|10=066|
8=FIX.4.4|9=59|35=0|34=7|49=TRADER1|52=20241116-21:29:06.000|56=EXCHANGE1|10=060|
8=FIX.4.4|9=59|35=0|34=7|49=EXCHANGE1|52=20241116-21:29:07.103|56=TRADER1|10=065|
8=FIX.4.4|9=59|35=0|34=8|49=TRADER1|52=20241116-21:29:36.000|56=EXCHANGE1|10=064|
8=FIX.4.4|9=59|35=0|34=8|49=EXCHANGE1|52=20241116-21:29:37.103|56=TRADER1|10=069|
8=FIX.4.4|9=59|35=0|34=9|49=TRADER1|52=20241116-21:30:06.000|56=EXCHANGE1|10=054|
8=FIX.4.4|9=59|35=0|34=9|49=EXCHANGE1|52=20241116-21:30:07.102|56=TRADER1|10=058|
8=FIX.4.4|9=60|35=0|34=10|49=TRADER1|52=20241116-21:30:36.000|56=EXCHANGE1|10=089|
8=FIX.4.4|9=60|35=0|34=10|49=EXCHANGE1|52=20241116-21:30:37.099|56=TRADER1|10=108|
8=FIX.4.4|9=60|35=0|34=11|49=TRADER1|52=20241116-21:31:06.000|56=EXCHANGE1|10=088|
8=FIX.4.4|9=60|35=5|34=11|49=EXCHANGE1|52=20241116-21:31:07.107|56=TRADER1|10=102|
8=FIX.4.4|9=60|35=5|34=12|49=TRADER1|52=20241116-21:31:07.000|56=EXCHANGE1|10=095|
8=FIX.4.4|9=77|35=A|34=1|49=TRADER1|52=20241116-21:41:56.000|56=EXCHANGE1|98=0|108=30|141=Y|10=140|
8=FIX.4.4|9=77|35=A|34=1|49=EXCHANGE1|52=20241116-21:41:56.228|56=TRADER1|98=0|108=30|141=Y|10=152|
8=FIX.4.4|9=59|35=0|34=2|49=EXCHANGE1|52=20241116-21:42:26.257|56=TRADER1|10=066|
8=FIX.4.4|9=59|35=0|34=2|49=TRADER1|52=20241116-21:42:26.000|56=EXCHANGE1|10=052|
8=FIX.4.4|9=59|35=0|34=3|49=EXCHANGE1|52=20241116-21:42:56.258|56=TRADER1|10=071|
8=FIX.4.4|9=59|35=0|34=3|49=TRADER1|52=20241116-21:42:56.000|56=EXCHANGE1|10=056|
8=FIX.4.4|9=77|35=A|34=1|49=TRADER1|52=20241116-21:43:23.000|56=EXCHANGE1|98=0|108=30|141=Y|10=136|
8=FIX.4.4|9=77|35=A|34=1|49=EXCHANGE1|52=20241116-21:43:23.536|56=TRADER1|98=0|108=30|141=Y|10=150|
8=FIX.4.4|9=59|35=0|34=2|49=TRADER1|52=20241116-21:43:53.000|56=EXCHANGE1|10=053|
8=FIX.4.4|9=59|35=0|34=2|49=EXCHANGE1|52=20241116-21:43:54.257|56=TRADER1|10=068|
8=FIX.4.4|9=59|35=0|34=3|49=TRADER1|52=20241116-21:44:23.000|56=EXCHANGE1|10=052|
8=FIX.4.4|9=59|35=0|34=3|49=EXCHANGE1|52=20241116-21:44:24.257|56=TRADER1|10=067|
8=FIX.4.4|9=59|35=0|34=4|49=TRADER1|52=20241116-21:44:53.000|56=EXCHANGE1|10=056|
8=FIX.4.4|9=59|35=0|34=4|49=EXCHANGE1|52=20241116-21:44:54.256|56=TRADER1|10=070|
8=FIX.4.4|9=59|35=0|34=5|49=TRADER1|52=20241116-21:45:23.000|56=EXCHANGE1|10=055|
8=FIX.4.4|9=59|35=0|34=5|49=EXCHANGE1|52=20241116-21:45:24.256|56=TRADER1|10=069|
8=FIX.4.4|9=59|35=0|34=6|49=TRADER1|52=20241116-21:45:53.000|56=EXCHANGE1|10=059|
8=FIX.4.4|9=59|35=0|34=6|49=EXCHANGE1|52=20241116-21:45:54.256|56=TRADER1|10=073|
8=FIX.4.4|9=59|35=0|34=7|49=TRADER1|52=20241116-21:46:23.000|56=EXCHANGE1|10=058|
8=FIX.4.4|9=59|35=0|34=7|49=EXCHANGE1|52=20241116-21:46:24.254|56=TRADER1|10=070|
8=FIX.4.4|9=59|35=0|34=8|49=TRADER1|52=20241116-21:46:53.000|56=EXCHANGE1|10=062|
8=FIX.4.4|9=59|35=0|34=8|49=EXCHANGE1|52=20241116-21:46:54.255|56=TRADER1|10=075|
8=FIX.4.4|9=59|35=0|34=9|49=TRADER1|52=20241116-21:47:23.000|56=EXCHANGE1|10=061|
8=FIX.4.4|9=59|35=0|34=9|49=EXCHANGE1|52=20241116-21:47:24.256|56=TRADER1|10=075|
8=FIX.4.4|9=60|35=0|34=10|49=TRADER1|52=20241116-21:47:53.000|56=EXCHANGE1|10=096|
8=FIX.4.4|9=60|35=0|34=10|49=EXCHANGE1|52=20241116-21:47:54.257|56=TRADER1|10=111|
8=FIX.4.4|9=60|35=0|34=11|49=TRADER1|52=20241116-21:48:23.000|56=EXCHANGE1|10=095|
8=FIX.4.4|9=60|35=0|34=11|49=EXCHANGE1|52=20241116-21:48:24.255|56=TRADER1|10=108|
8=FIX.4.4|9=60|35=0|34=12|49=TRADER1|52=20241116-21:48:53.000|56=EXCHANGE1|10=099|
8=FIX.4.4|9=60|35=0|34=12|49=EXCHANGE1|52=20241116-21:48:54.254|56=TRADER1|10=111|
8=FIX.4.4|9=60|35=0|34=13|49=TRADER1|52=20241116-21:49:23.000|56=EXCHANGE1|10=098|
8=FIX.4.4|9=60|35=0|34=13|49=EXCHANGE1|52=20241116-21:49:24.255|56=TRADER1|10=111|
8=FIX.4.4|9=60|35=0|34=14|49=TRADER1|52=20241116-21:49:53.000|56=EXCHANGE1|10=102|
8=FIX.4.4|9=60|35=0|34=14|49=EXCHANGE1|52=20241116-21:49:54.256|56=TRADER1|10=116|
8=FIX.4.4|9=60|35=0|34=15|49=TRADER1|52=20241116-21:50:23.000|56=EXCHANGE1|10=092|
8=FIX.4.4|9=60|35=0|34=15|49=EXCHANGE1|52=20241116-21:50:24.256|56=TRADER1|10=106|
8=FIX.4.4|9=60|35=0|34=16|49=TRADER1|52=20241116-21:50:53.000|56=EXCHANGE1|10=096|
8=FIX.4.4|9=60|35=0|34=16|49=EXCHANGE1|52=20241116-21:50:54.256|56=TRADER1|10=110|
8=FIX.4.4|9=60|35=0|34=17|49=TRADER1|52=20241116-21:51:23.000|56=EXCHANGE1|10=095|
8=FIX.4.4|9=60|35=0|34=17|49=EXCHANGE1|52=20241116-21:51:24.256|56=TRADER1|10=109|
8=FIX.4.4|9=60|35=0|34=18|49=TRADER1|52=20241116-21:51:53.000|56=EXCHANGE1|10=099|
8=FIX.4.4|9=60|35=0|34=18|49=EXCHANGE1|52=20241116-21:51:54.254|56=TRADER1|10=111|
8=FIX.4.4|9=60|35=0|34=19|49=TRADER1|52=20241116-21:52:23.000|56=EXCHANGE1|10=098|
8=FIX.4.4|9=60|35=0|34=19|49=EXCHANGE1|52=20241116-21:52:24.255|56=TRADER1|10=111|
8=FIX.4.4|9=60|35=0|34=20|49=TRADER1|52=20241116-21:52:53.000|56=EXCHANGE1|10=093|
8=FIX.4.4|9=60|35=0|34=20|49=EXCHANGE1|52=20241116-21:52:54.255|56=TRADER1|10=106|
8=FIX.4.4|9=60|35=0|34=21|49=TRADER1|52=20241116-21:53:23.000|56=EXCHANGE1|10=092|
8=FIX.4.4|9=60|35=0|34=21|49=EXCHANGE1|52=20241116-21:53:24.255|56=TRADER1|10=105|
8=FIX.4.4|9=60|35=0|34=22|49=TRADER1|52=20241116-21:53:53.000|56=EXCHANGE1|10=096|
8=FIX.4.4|9=60|35=0|34=22|49=EXCHANGE1|52=20241116-21:53:54.256|56=TRADER1|10=110|
8=FIX.4.4|9=60|35=0|34=23|49=TRADER1|52=20241116-21:54:23.000|56=EXCHANGE1|10=095|
8=FIX.4.4|9=60|35=0|34=23|49=EXCHANGE1|52=20241116-21:54:24.254|56=TRADER1|10=107|
8=FIX.4.4|9=60|35=0|34=24|49=TRADER1|52=20241116-21:54:53.000|56=EXCHANGE1|10=099|
8=FIX.4.4|9=60|35=0|34=24|49=EXCHANGE1|52=20241116-21:54:54.253|56=TRADER1|10=110|
8=FIX.4.4|9=60|35=0|34=25|49=TRADER1|52=20241116-21:55:23.000|56=EXCHANGE1|10=098|
8=FIX.4.4|9=60|35=0|34=25|49=EXCHANGE1|52=20241116-21:55:24.254|56=TRADER1|10=110|
8=FIX.4.4|9=60|35=0|34=26|49=TRADER1|52=20241116-21:55:53.000|56=EXCHANGE1|10=102|
8=FIX.4.4|9=60|35=0|34=26|49=EXCHANGE1|52=20241116-21:55:54.253|56=TRADER1|10=113|
8=FIX.4.4|9=60|35=0|34=27|49=TRADER1|52=20241116-21:56:23.000|56=EXCHANGE1|10=101|
8=FIX.4.4|9=60|35=0|34=27|49=EXCHANGE1|52=20241116-21:56:24.252|56=TRADER1|10=111|
8=FIX.4.4|9=60|35=0|34=28|49=TRADER1|52=20241116-21:56:53.000|56=EXCHANGE1|10=105|
8=FIX.4.4|9=60|35=0|34=28|49=EXCHANGE1|52=20241116-21:56:54.254|56=TRADER1|10=117|
8=FIX.4.4|9=60|35=0|34=29|49=TRADER1|52=20241116-21:57:23.000|56=EXCHANGE1|10=104|
8=FIX.4.4|9=60|35=0|34=29|49=EXCHANGE1|52=20241116-21:57:24.267|56=TRADER1|10=120|
8=FIX.4.4|9=60|35=0|34=30|49=TRADER1|52=20241116-21:57:53.000|56=EXCHANGE1|10=099|
8=FIX.4.4|9=60|35=0|34=30|49=EXCHANGE1|52=20241116-21:57:54.274|56=TRADER1|10=113|
8=FIX.4.4|9=60|35=0|34=31|49=TRADER1|52=20241116-21:58:23.000|56=EXCHANGE1|10=098|
8=FIX.4.4|9=60|35=0|34=31|49=EXCHANGE1|52=20241116-21:58:24.271|56=TRADER1|10=109|
8=FIX.4.4|9=60|35=0|34=32|49=TRADER1|52=20241116-21:58:53.000|56=EXCHANGE1|10=102|
8=FIX.4.4|9=60|35=0|34=32|49=EXCHANGE1|52=20241116-21:58:54.274|56=TRADER1|10=116|
8=FIX.4.4|9=60|35=0|34=33|49=TRADER1|52=20241116-21:59:23.000|56=EXCHANGE1|10=101|
8=FIX.4.4|9=60|35=0|34=33|49=EXCHANGE1|52=20241116-21:59:24.273|56=TRADER1|10=114|
8=FIX.4.4|9=131|35=D|34=34|49=TRADER1|52=20241116-21:59:53.000|56=EXCHANGE1|60=20241116-21:59:53.241|11=ORDER12345|38=100|40=2|44=150|54=1|55=AAPL|10=131|
8=FIX.4.4|9=113|35=8|34=34|49=EXCHANGE1|52=20241116-21:59:53.302|56=TRADER1|6=150|14=100|17=54321|37=12345|39=2|54=1|150=0|151=0|10=236|
8=FIX.4.4|9=60|35=0|34=35|49=TRADER1|52=20241116-22:00:23.000|56=EXCHANGE1|10=090|
8=FIX.4.4|9=60|35=0|34=35|49=EXCHANGE1|52=20241116-22:00:24.272|56=TRADER1|10=102|
8=FIX.4.4|9=60|35=0|34=36|49=TRADER1|52=20241116-22:00:53.000|56=EXCHANGE1|10=094|
8=FIX.4.4|9=60|35=0|34=36|49=EXCHANGE1|52=20241116-22:00:54.274|56=TRADER1|10=108|
8=FIX.4.4|9=60|35=0|34=37|49=TRADER1|52=20241116-22:01:23.000|56=EXCHANGE1|10=093|
8=FIX.4.4|9=60|35=0|34=37|49=EXCHANGE1|52=20241116-22:01:24.274|56=TRADER1|10=107|
8=FIX.4.4|9=60|35=0|34=38|49=TRADER1|52=20241116-22:01:53.000|56=EXCHANGE1|10=097|
8=FIX.4.4|9=60|35=0|34=38|49=EXCHANGE1|52=20241116-22:01:54.280|56=TRADER1|10=108|
8=FIX.4.4|9=60|35=0|34=39|49=TRADER1|52=20241116-22:02:23.000|56=EXCHANGE1|10=096|
8=FIX.4.4|9=60|35=0|34=39|49=EXCHANGE1|52=20241116-22:02:25.277|56=TRADER1|10=114|
8=FIX.4.4|9=60|35=0|34=40|49=TRADER1|52=20241116-22:02:53.000|56=EXCHANGE1|10=091|
8=FIX.4.4|9=60|35=0|34=40|49=EXCHANGE1|52=20241116-22:02:55.274|56=TRADER1|10=106|
8=FIX.4.4|9=60|35=0|34=41|49=TRADER1|52=20241116-22:03:23.000|56=EXCHANGE1|10=090|
8=FIX.4.4|9=60|35=0|34=41|49=EXCHANGE1|52=20241116-22:03:25.274|56=TRADER1|10=105|
8=FIX.4.4|9=60|35=0|34=42|49=TRADER1|52=20241116-22:03:53.000|56=EXCHANGE1|10=094|
8=FIX.4.4|9=60|35=0|34=42|49=EXCHANGE1|52=20241116-22:03:55.275|56=TRADER1|10=110|
8=FIX.4.4|9=60|35=0|34=43|49=TRADER1|52=20241116-22:04:23.000|56=EXCHANGE1|10=093|
8=FIX.4.4|9=60|35=0|34=43|49=EXCHANGE1|52=20241116-22:04:25.275|56=TRADER1|10=109|
8=FIX.4.4|9=60|35=0|34=44|49=TRADER1|52=20241116-22:04:53.000|56=EXCHANGE1|10=097|
8=FIX.4.4|9=60|35=0|34=44|49=EXCHANGE1|52=20241116-22:04:55.276|56=TRADER1|10=114|
8=FIX.4.4|9=60|35=0|34=45|49=TRADER1|52=20241116-22:05:23.000|56=EXCHANGE1|10=096|
8=FIX.4.4|9=60|35=0|34=45|49=EXCHANGE1|52=20241116-22:05:25.275|56=TRADER1|10=112|
8=FIX.4.4|9=60|35=0|34=46|49=TRADER1|52=20241116-22:05:53.000|56=EXCHANGE1|10=100|
8=FIX.4.4|9=60|35=0|34=46|49=EXCHANGE1|52=20241116-22:05:55.275|56=TRADER1|10=116|
8=FIX.4.4|9=60|35=0|34=47|49=TRADER1|52=20241116-22:06:23.000|56=EXCHANGE1|10=099|
8=FIX.4.4|9=60|35=0|34=47|49=EXCHANGE1|52=20241116-22:06:25.276|56=TRADER1|10=116|
8=FIX.4.4|9=60|35=0|34=48|49=TRADER1|52=20241116-22:06:53.000|56=EXCHANGE1|10=103|
8=FIX.4.4|9=60|35=0|34=48|49=EXCHANGE1|52=20241116-22:06:55.272|56=TRADER1|10=116|
8=FIX.4.4|9=60|35=0|34=49|49=TRADER1|52=20241116-22:07:23.000|56=EXCHANGE1|10=102|
8=FIX.4.4|9=60|35=0|34=49|49=EXCHANGE1|52=20241116-22:07:25.274|56=TRADER1|10=117|
8=FIX.4.4|9=60|35=0|34=50|49=TRADER1|52=20241116-22:07:53.000|56=EXCHANGE1|10=097|
8=FIX.4.4|9=60|35=0|34=50|49=EXCHANGE1|52=20241116-22:07:55.276|56=TRADER1|10=114|
8=FIX.4.4|9=60|35=0|34=51|49=TRADER1|52=20241116-22:08:23.000|56=EXCHANGE1|10=096|
8=FIX.4.4|9=60|35=0|34=51|49=EXCHANGE1|52=20241116-22:08:25.276|56=TRADER1|10=113|
8=FIX.4.4|9=60|35=0|34=52|49=TRADER1|52=20241116-22:08:53.000|56=EXCHANGE1|10=100|
8=FIX.4.4|9=60|35=0|34=52|49=EXCHANGE1|52=20241116-22:08:55.277|56=TRADER1|10=118|
8=FIX.4.4|9=60|35=0|34=53|49=TRADER1|52=20241116-22:09:23.000|56=EXCHANGE1|10=099|
8=FIX.4.4|9=60|35=0|34=53|49=EXCHANGE1|52=20241116-22:09:25.272|56=TRADER1|10=112|
8=FIX.4.4|9=60|35=0|34=54|49=TRADER1|52=20241116-22:09:53.000|56=EXCHANGE1|10=103|
8=FIX.4.4|9=60|35=0|34=54|49=EXCHANGE1|52=20241116-22:09:55.275|56=TRADER1|10=119|
8=FIX.4.4|9=60|35=0|34=55|49=TRADER1|52=20241116-22:10:23.000|56=EXCHANGE1|10=093|
8=FIX.4.4|9=60|35=0|34=55|49=EXCHANGE1|52=20241116-22:10:25.275|56=TRADER1|10=109|
8=FIX.4.4|9=60|35=0|34=56|49=TRADER1|52=20241116-22:10:53.000|56=EXCHANGE1|10=097|
8=FIX.4.4|9=60|35=0|34=56|49=EXCHANGE1|52=20241116-22:10:55.276|56=TRADER1|10=114|
8=FIX.4.4|9=60|35=0|34=57|49=TRADER1|52=20241116-22:11:23.000|56=EXCHANGE1|10=096|
8=FIX.4.4|9=60|35=0|34=57|49=EXCHANGE1|52=20241116-22:11:25.277|56=TRADER1|10=114|
8=FIX.4.4|9=60|35=0|34=58|49=TRADER1|52=20241116-22:11:53.000|56=EXCHANGE1|10=100|
8=FIX.4.4|9=60|35=0|34=58|49=EXCHANGE1|52=20241116-22:11:55.273|56=TRADER1|10=114|
8=FIX.4.4|9=60|35=0|34=59|49=TRADER1|52=20241116-22:12:23.000|56=EXCHANGE1|10=099|
8=FIX.4.4|9=60|35=0|34=59|49=EXCHANGE1|52=20241116-22:12:25.273|56=TRADER1|10=113|
8=FIX.4.4|9=60|35=0|34=60|49=TRADER1|52=20241116-22:12:53.000|56=EXCHANGE1|10=094|
8=FIX.4.4|9=60|35=0|34=60|49=EXCHANGE1|52=20241116-22:12:55.277|56=TRADER1|10=112|
8=FIX.4.4|9=60|35=0|34=61|49=TRADER1|52=20241116-22:13:23.000|56=EXCHANGE1|10=093|
8=FIX.4.4|9=60|35=0|34=61|49=EXCHANGE1|52=20241116-22:13:25.276|56=TRADER1|10=110|
8=FIX.4.4|9=60|35=0|34=62|49=TRADER1|52=20241116-22:13:53.000|56=EXCHANGE1|10=097|
8=FIX.4.4|9=60|35=0|34=62|49=EXCHANGE1|52=20241116-22:13:55.276|56=TRADER1|10=114|
8=FIX.4.4|9=60|35=0|34=63|49=TRADER1|52=20241116-22:14:23.000|56=EXCHANGE1|10=096|
8=FIX.4.4|9=60|35=0|34=63|49=EXCHANGE1|52=20241116-22:14:25.276|56=TRADER1|10=113|
8=FIX.4.4|9=60|35=0|34=64|49=TRADER1|52=20241116-22:14:53.000|56=EXCHANGE1|10=100|
8=FIX.4.4|9=60|35=0|34=64|49=EXCHANGE1|52=20241116-22:14:55.276|56=TRADER1|10=117|
8=FIX.4.4|9=60|35=0|34=65|49=TRADER1|52=20241116-22:15:23.000|56=EXCHANGE1|10=099|
8=FIX.4.4|9=60|35=0|34=65|49=EXCHANGE1|52=20241116-22:15:25.276|56=TRADER1|10=116|
8=FIX.4.4|9=60|35=0|34=66|49=TRADER1|52=20241116-22:15:53.000|56=EXCHANGE1|10=103|
8=FIX.4.4|9=60|35=0|34=66|49=EXCHANGE1|52=20241116-22:15:55.276|56=TRADER1|10=120|
8=FIX.4.4|9=60|35=0|34=67|49=TRADER1|52=20241116-22:16:23.000|56=EXCHANGE1|10=102|
8=FIX.4.4|9=60|35=0|34=67|49=EXCHANGE1|52=20241116-22:16:25.277|56=TRADER1|10=120|
8=FIX.4.4|9=60|35=0|34=68|49=TRADER1|52=20241116-22:16:53.000|56=EXCHANGE1|10=106|
8=FIX.4.4|9=60|35=0|34=68|49=EXCHANGE1|52=20241116-22:16:55.276|56=TRADER1|10=123|
8=FIX.4.4|9=60|35=0|34=69|49=TRADER1|52=20241116-22:17:23.000|56=EXCHANGE1|10=105|
8=FIX.4.4|9=60|35=0|34=69|49=EXCHANGE1|52=20241116-22:17:25.278|56=TRADER1|10=124|
8=FIX.4.4|9=60|35=0|34=70|49=TRADER1|52=20241116-22:17:53.000|56=EXCHANGE1|10=100|
8=FIX.4.4|9=60|35=0|34=70|49=EXCHANGE1|52=20241116-22:17:55.277|56=TRADER1|10=118|
8=FIX.4.4|9=60|35=0|34=71|49=TRADER1|52=20241116-22:18:23.000|56=EXCHANGE1|10=099|
8=FIX.4.4|9=60|35=0|34=71|49=EXCHANGE1|52=20241116-22:18:25.277|56=TRADER1|10=117|
8=FIX.4.4|9=60|35=0|34=72|49=TRADER1|52=20241116-22:18:53.000|56=EXCHANGE1|10=103|
8=FIX.4.4|9=60|35=0|34=72|49=EXCHANGE1|52=20241116-22:18:55.275|56=TRADER1|10=119|
8=FIX.4.4|9=60|35=0|34=73|49=TRADER1|52=20241116-22:19:23.000|56=EXCHANGE1|10=102|
8=FIX.4.4|9=60|35=0|34=73|49=EXCHANGE1|52=20241116-22:19:25.279|56=TRADER1|10=122|
8=FIX.4.4|9=60|35=0|34=74|49=TRADER1|52=20241116-22:19:53.000|56=EXCHANGE1|10=106|
8=FIX.4.4|9=60|35=0|34=74|49=EXCHANGE1|52=20241116-22:19:55.278|56=TRADER1|10=125|
8=FIX.4.4|9=60|35=0|34=75|49=TRADER1|52=20241116-22:20:23.000|56=EXCHANGE1|10=096|
8=FIX.4.4|9=60|35=0|34=75|49=EXCHANGE1|52=20241116-22:20:25.279|56=TRADER1|10=116|
8=FIX.4.4|9=60|35=0|34=76|49=TRADER1|52=20241116-22:20:53.000|56=EXCHANGE1|10=100|
8=FIX.4.4|9=60|35=0|34=76|49=EXCHANGE1|52=20241116-22:20:55.279|56=TRADER1|10=120|
8=FIX.4.4|9=77|35=A|34=1|49=TRADER1|52=20241116-22:25:44.000|56=EXCHANGE1|98=0|108=30|141=Y|10=140|
8=FIX.4.4|9=77|35=A|34=1|49=EXCHANGE1|52=20241116-22:25:44.760|56=TRADER1|98=0|108=30|141=Y|10=153|
8=FIX.4.4|9=59|35=0|34=2|49=TRADER1|52=20241116-22:26:14.000|56=EXCHANGE1|10=052|
8=FIX.4.4|9=59|35=0|34=2|49=EXCHANGE1|52=20241116-22:26:15.283|56=TRADER1|10=066|
8=FIX.4.4|9=77|35=A|34=1|49=TRADER1|52=20241116-22:26:19.000|56=EXCHANGE1|98=0|108=30|141=Y|10=143|
8=FIX.4.4|9=77|35=A|34=1|49=TRADER1|52=20241116-22:26:31.000|56=EXCHANGE1|98=0|108=30|141=Y|10=137|
8=FIX.4.4|9=77|35=A|34=1|49=EXCHANGE1|52=20241116-22:26:31.186|56=TRADER1|98=0|108=30|141=Y|10=152|
8=FIX.4.4|9=77|35=A|34=1|49=TRADER1|52=20241116-22:26:47.000|56=EXCHANGE1|98=0|108=30|141=Y|10=144|
8=FIX.4.4|9=77|35=A|34=1|49=EXCHANGE1|52=20241116-22:26:47.778|56=TRADER1|98=0|108=30|141=Y|10=166|
8=FIX.4.4|9=59|35=0|34=2|49=TRADER1|52=20241116-22:27:17.000|56=EXCHANGE1|10=056|
8=FIX.4.4|9=59|35=0|34=2|49=EXCHANGE1|52=20241116-22:27:18.283|56=TRADER1|10=070|
8=FIX.4.4|9=59|35=0|34=3|49=TRADER1|52=20241116-22:27:47.000|56=EXCHANGE1|10=060|
8=FIX.4.4|9=59|35=0|34=3|49=EXCHANGE1|52=20241116-22:27:48.283|56=TRADER1|10=074|
8=FIX.4.4|9=59|35=0|34=4|49=EXCHANGE1|52=20241116-22:28:29.734|56=TRADER1|10=076|
8=FIX.4.4|9=68|35=1|34=5|49=EXCHANGE1|52=20241116-22:28:33.342|56=TRADER1|112=TEST|10=086|
8=FIX.4.4|9=68|35=1|34=4|49=TRADER1|52=20241116-22:28:29.000|56=EXCHANGE1|112=TEST|10=081|
8=FIX.4.4|9=68|35=0|34=6|49=EXCHANGE1|52=20241116-22:28:35.189|56=TRADER1|112=TEST|10=097|
8=FIX.4.4|9=68|35=0|34=5|49=TRADER1|52=20241116-22:28:35.000|56=EXCHANGE1|112=TEST|10=078|
8=FIX.4.4|9=59|35=0|34=7|49=EXCHANGE1|52=20241116-22:29:05.341|56=TRADER1|10=068|
8=FIX.4.4|9=59|35=0|34=6|49=TRADER1|52=20241116-22:29:05.000|56=EXCHANGE1|10=059|
8=FIX.4.4|9=77|35=A|34=1|49=TRADER1|52=20241116-22:30:49.000|56=EXCHANGE1|98=0|108=30|141=Y|10=141|
8=FIX.4.4|9=77|35=A|34=1|49=EXCHANGE1|52=20241116-22:30:49.147|56=TRADER1|98=0|108=30|141=Y|10=153|
8=FIX.4.4|9=68|35=1|34=2|49=EXCHANGE1|52=20241116-22:31:55.973|56=TRADER1|112=TEST|10=091|
8=FIX.4.4|9=68|35=1|34=2|49=TRADER1|52=20241116-22:31:55.000|56=EXCHANGE1|112=TEST|10=072|
8=FIX.4.4|9=68|35=0|34=3|49=EXCHANGE1|52=20241116-22:32:01.124|56=TRADER1|112=TEST|10=071|
8=FIX.4.4|9=68|35=0|34=3|49=TRADER1|52=20241116-22:32:01.000|56=EXCHANGE1|112=TEST|10=064|
8=FIX.4.4|9=59|35=0|34=4|49=TRADER1|52=20241116-22:32:31.000|56=EXCHANGE1|10=050|
8=FIX.4.4|9=59|35=0|34=4|49=EXCHANGE1|52=20241116-22:32:31.435|56=TRADER1|10=062|
8=FIX.4.4|9=77|35=A|34=1|49=TRADER1|52=20241116-22:34:15.000|56=EXCHANGE1|98=0|108=30|141=Y|10=138|
8=FIX.4.4|9=77|35=A|34=1|49=EXCHANGE1|52=20241116-22:34:15.186|56=TRADER1|98=0|108=30|141=Y|10=153|
8=FIX.4.4|9=59|35=0|34=2|49=TRADER1|52=20241116-22:34:45.000|56=EXCHANGE1|10=055|
8=FIX.4.4|9=59|35=0|34=2|49=EXCHANGE1|52=20241116-22:34:45.852|56=TRADER1|10=070|
8=FIX.4.4|9=59|35=0|34=3|49=TRADER1|52=20241116-22:35:15.000|56=EXCHANGE1|10=054|
8=FIX.4.4|9=59|35=0|34=3|49=EXCHANGE1|52=20241116-22:35:15.860|56=TRADER1|10=068|
8=FIX.4.4|9=59|35=0|34=4|49=TRADER1|52=20241116-22:35:45.000|56=EXCHANGE1|10=058|
8=FIX.4.4|9=59|35=0|34=4|49=EXCHANGE1|52=20241116-22:35:45.861|56=TRADER1|10=073|
8=FIX.4.4|9=59|35=0|34=5|49=TRADER1|52=20241116-22:36:15.000|56=EXCHANGE1|10=057|
8=FIX.4.4|9=59|35=0|34=5|49=EXCHANGE1|52=20241116-22:36:16.076|56=TRADER1|10=071|
8=FIX.4.4|9=77|35=A|34=1|49=TRADER1|52=20241116-22:38:46.000|56=EXCHANGE1|98=0|108=30|141=Y|10=146|
8=FIX.4.4|9=77|35=A|34=1|49=EXCHANGE1|52=20241116-22:38:46.762|56=TRADER1|98=0|108=30|141=Y|10=161|
8=FIX.4.4|9=59|35=0|34=2|49=TRADER1|52=20241116-22:39:16.000|56=EXCHANGE1|10=058|
8=FIX.4.4|9=59|35=0|34=2|49=EXCHANGE1|52=20241116-22:39:17.472|56=TRADER1|10=072|
8=FIX.4.4|9=59|35=0|34=3|49=TRADER1|52=20241116-22:39:46.000|56=EXCHANGE1|10=062|
8=FIX.4.4|9=59|35=0|34=3|49=EXCHANGE1|52=20241116-22:39:47.478|56=TRADER1|10=082|
8=FIX.4.4|9=59|35=0|34=4|49=TRADER1|52=20241116-22:40:16.000|56=EXCHANGE1|10=052|
8=FIX.4.4|9=59|35=0|34=4|49=EXCHANGE1|52=20241116-22:40:17.472|56=TRADER1|10=066|
8=FIX.4.4|9=59|35=0|34=5|49=TRADER1|52=20241116-22:40:46.000|56=EXCHANGE1|10=056|
8=FIX.4.4|9=59|35=0|34=5|49=EXCHANGE1|52=20241116-22:40:47.478|56=TRADER1|10=076|
8=FIX.4.4|9=68|35=1|34=6|49=EXCHANGE1|52=20241116-22:41:33.320|56=TRADER1|112=TEST|10=078|
8=FIX.4.4|9=68|35=1|34=6|49=TRADER1|52=20241116-22:41:33.000|56=EXCHANGE1|112=TEST|10=073|
8=FIX.4.4|9=68|35=0|34=7|49=EXCHANGE1|52=20241116-22:41:38.780|56=TRADER1|112=TEST|10=093|
8=FIX.4.4|9=68|35=0|34=7|49=TRADER1|52=20241116-22:41:38.000|56=EXCHANGE1|112=TEST|10=078|
8=FIX.4.4|9=59|35=0|34=8|49=TRADER1|52=20241116-22:42:08.000|56=EXCHANGE1|10=059|
8=FIX.4.4|9=59|35=0|34=8|49=EXCHANGE1|52=20241116-22:42:09.072|56=TRADER1|10=069|
8=FIX.4.4|9=59|35=0|34=9|49=TRADER1|52=20241116-22:42:38.000|56=EXCHANGE1|10=063|
8=FIX.4.4|9=59|35=0|34=9|49=EXCHANGE1|52=20241116-22:42:39.077|56=TRADER1|10=078|
8=FIX.4.4|9=60|35=0|34=10|49=TRADER1|52=20241116-22:43:08.000|56=EXCHANGE1|10=093|
8=FIX.4.4|9=60|35=0|34=10|49=EXCHANGE1|52=20241116-22:43:09.076|56=TRADER1|10=107|
8=FIX.4.4|9=77|35=A|34=1|49=TRADER1|52=20241116-22:49:05.000|56=EXCHANGE1|98=0|108=30|141=Y|10=143|
8=FIX.4.4|9=77|35=A|34=1|49=EXCHANGE1|52=20241116-22:49:05.154|56=TRADER1|98=0|108=30|141=Y|10=153|
8=FIX.4.4|9=77|35=A|34=1|49=TRADER1|52=20241116-23:01:07.000|56=EXCHANGE1|98=0|108=30|141=Y|10=134|
8=FIX.4.4|9=77|35=A|34=1|49=EXCHANGE1|52=20241116-23:01:07.195|56=TRADER1|98=0|108=30|141=Y|10=149|
8=FIX.4.4|9=77|35=A|34=1|49=TRADER1|52=20241116-23:14:04.000|56=EXCHANGE1|98=0|108=30|141=Y|10=135|
8=FIX.4.4|9=77|35=A|34=1|49=EXCHANGE1|52=20241116-23:14:04.144|56=TRADER1|98=0|108=30|141=Y|10=144|
8=FIX.4.4|9=77|35=A|34=1|49=TRADER1|52=20241116-23:16:55.000|56=EXCHANGE1|98=0|108=30|141=Y|10=143|
8=FIX.4.4|9=77|35=A|34=1|49=EXCHANGE1|52=20241116-23:16:55.356|56=TRADER1|98=0|108=30|141=Y|10=157|
8=FIX.4.4|9=59|35=0|34=2|49=TRADER1|52=20241116-23:17:25.000|56=EXCHANGE1|10=055|
8=FIX.4.4|9=59|35=0|34=2|49=EXCHANGE1|52=20241116-23:17:25.781|56=TRADER1|10=071|
8=FIX.4.4|9=59|35=0|34=3|49=TRADER1|52=20241116-23:17:55.000|56=EXCHANGE1|10=059|
8=FIX.4.4|9=59|35=0|34=3|49=EXCHANGE1|52=20241116-23:17:55.781|56=TRADER1|10=075|
8=FIX.4.4|9=59|35=0|34=4|49=TRADER1|52=20241116-23:18:25.000|56=EXCHANGE1|10=058|
8=FIX.4.4|9=59|35=0|34=4|49=EXCHANGE1|52=20241116-23:18:25.781|56=TRADER1|10=074|
8=FIX.4.4|9=59|35=0|34=5|49=TRADER1|52=20241116-23:18:55.000|56=EXCHANGE1|10=062|
8=FIX.4.4|9=59|35=0|34=5|49=EXCHANGE1|52=20241116-23:18:55.782|56=TRADER1|10=079|
8=FIX.4.4|9=59|35=0|34=6|49=TRADER1|52=20241116-23:19:25.000|56=EXCHANGE1|10=061|
8=FIX.4.4|9=59|35=0|34=6|49=EXCHANGE1|52=20241116-23:19:25.782|56=TRADER1|10=078|
8=FIX.4.4|9=59|35=0|34=7|49=TRADER1|52=20241116-23:19:55.000|56=EXCHANGE1|10=065|
8=FIX.4.4|9=59|35=0|34=7|49=EXCHANGE1|52=20241116-23:19:55.779|56=TRADER1|10=088|
8=FIX.4.4|9=59|35=0|34=8|49=TRADER1|52=20241116-23:20:25.000|56=EXCHANGE1|10=055|
8=FIX.4.4|9=59|35=0|34=8|49=EXCHANGE1|52=20241116-23:20:25.782|56=TRADER1|10=072|
8=FIX.4.4|9=59|35=0|34=9|49=TRADER1|52=20241116-23:20:55.000|56=EXCHANGE1|10=059|
8=FIX.4.4|9=59|35=0|34=9|49=EXCHANGE1|52=20241116-23:20:55.783|56=TRADER1|10=077|
8=FIX.4.4|9=60|35=0|34=10|49=TRADER1|52=20241116-23:21:25.000|56=EXCHANGE1|10=089|
8=FIX.4.4|9=60|35=0|34=10|49=EXCHANGE1|52=20241116-23:21:25.778|56=TRADER1|10=111|
8=FIX.4.4|9=60|35=0|34=11|49=TRADER1|52=20241116-23:21:55.000|56=EXCHANGE1|10=093|
8=FIX.4.4|9=60|35=0|34=11|49=EXCHANGE1|52=20241116-23:21:55.783|56=TRADER1|10=111|
8=FIX.4.4|9=60|35=0|34=12|49=TRADER1|52=20241116-23:22:25.000|56=EXCHANGE1|10=092|
8=FIX.4.4|9=60|35=0|34=12|49=EXCHANGE1|52=20241116-23:22:25.783|56=TRADER1|10=110|
8=FIX.4.4|9=60|35=0|34=13|49=TRADER1|52=20241116-23:22:55.000|56=EXCHANGE1|10=096|
8=FIX.4.4|9=60|35=0|34=13|49=EXCHANGE1|52=20241116-23:22:55.781|56=TRADER1|10=112|
8=FIX.4.4|9=60|35=0|34=14|49=TRADER1|52=20241116-23:23:25.000|56=EXCHANGE1|10=095|
8=FIX.4.4|9=60|35=0|34=14|49=EXCHANGE1|52=20241116-23:23:25.781|56=TRADER1|10=111|
8=FIX.4.4|9=60|35=0|34=15|49=TRADER1|52=20241116-23:23:55.000|56=EXCHANGE1|10=099|
8=FIX.4.4|9=60|35=0|34=15|49=EXCHANGE1|52=20241116-23:23:55.780|56=TRADER1|10=114|
8=FIX.4.4|9=60|35=0|34=16|49=TRADER1|52=20241116-23:24:25.000|56=EXCHANGE1|10=098|
8=FIX.4.4|9=60|35=0|34=16|49=EXCHANGE1|52=20241116-23:24:25.778|56=TRADER1|10=120|
8=FIX.4.4|9=77|35=A|34=1|49=TRADER1|52=20241116-23:42:21.000|56=EXCHANGE1|98=0|108=30|141=Y|10=135|
8=FIX.4.4|9=77|35=A|34=1|49=EXCHANGE1|52=20241116-23:42:21.546|56=TRADER1|98=0|108=30|141=Y|10=150|
8=FIX.4.4|9=59|35=0|34=2|49=EXCHANGE1|52=20241116-23:42:51.550|56=TRADER1|10=062|
8=FIX.4.4|9=59|35=0|34=2|49=TRADER1|52=20241116-23:42:51.000|56=EXCHANGE1|10=052|
8=FIX.4.4|9=59|35=0|34=3|49=TRADER1|52=20241116-23:43:21.000|56=EXCHANGE1|10=051|
8=FIX.4.4|9=59|35=0|34=3|49=EXCHANGE1|52=20241116-23:43:21.550|56=TRADER1|10=061|
8=FIX.4.4|9=59|35=0|34=4|49=TRADER1|52=20241116-23:43:51.000|56=EXCHANGE1|10=055|
8=FIX.4.4|9=59|35=0|34=4|49=EXCHANGE1|52=20241116-23:43:51.545|56=TRADER1|10=069|
8=FIX.4.4|9=59|35=0|34=5|49=TRADER1|52=20241116-23:44:21.000|56=EXCHANGE1|10=054|
8=FIX.4.4|9=59|35=0|34=5|49=EXCHANGE1|52=20241116-23:44:21.547|56=TRADER1|10=070|
8=FIX.4.4|9=59|35=0|34=6|49=EXCHANGE1|52=20241116-23:44:51.547|56=TRADER1|10=074|
8=FIX.4.4|9=59|35=0|34=6|49=TRADER1|52=20241116-23:44:51.000|56=EXCHANGE1|10=058|
8=FIX.4.4|9=59|35=0|34=7|49=TRADER1|52=20241116-23:45:21.000|56=EXCHANGE1|10=057|
8=FIX.4.4|9=59|35=0|34=7|49=EXCHANGE1|52=20241116-23:45:21.549|56=TRADER1|10=075|
8=FIX.4.4|9=59|35=0|34=8|49=EXCHANGE1|52=20241116-23:45:51.548|56=TRADER1|10=078|
8=FIX.4.4|9=59|35=0|34=8|49=TRADER1|52=20241116-23:45:51.000|56=EXCHANGE1|10=061|
8=FIX.4.4|9=59|35=0|34=9|49=TRADER1|52=20241116-23:46:21.000|56=EXCHANGE1|10=060|
8=FIX.4.4|9=59|35=0|34=9|49=EXCHANGE1|52=20241116-23:46:21.546|56=TRADER1|10=075|
8=FIX.4.4|9=60|35=0|34=10|49=TRADER1|52=20241116-23:46:51.000|56=EXCHANGE1|10=095|
8=FIX.4.4|9=60|35=0|34=10|49=EXCHANGE1|52=20241116-23:46:51.545|56=TRADER1|10=109|
8=FIX.4.4|9=60|35=0|34=11|49=TRADER1|52=20241116-23:47:21.000|56=EXCHANGE1|10=094|
8=FIX.4.4|9=60|35=0|34=11|49=EXCHANGE1|52=20241116-23:47:21.539|56=TRADER1|10=111|
8=FIX.4.4|9=60|35=0|34=12|49=TRADER1|52=20241116-23:47:51.000|56=EXCHANGE1|10=098|
8=FIX.4.4|9=60|35=0|34=12|49=EXCHANGE1|52=20241116-23:47:51.543|56=TRADER1|10=110|
8=FIX.4.4|9=60|35=0|34=13|49=TRADER1|52=20241116-23:48:21.000|56=EXCHANGE1|10=097|
8=FIX.4.4|9=60|35=0|34=13|49=EXCHANGE1|52=20241116-23:48:21.542|56=TRADER1|10=108|
8=FIX.4.4|9=60|35=0|34=14|49=TRADER1|52=20241116-23:48:51.000|56=EXCHANGE1|10=101|
8=FIX.4.4|9=60|35=0|34=14|49=EXCHANGE1|52=20241116-23:48:51.540|56=TRADER1|10=110|
8=FIX.4.4|9=60|35=0|34=15|49=TRADER1|52=20241116-23:49:21.000|56=EXCHANGE1|10=100|
8=FIX.4.4|9=60|35=0|34=15|49=EXCHANGE1|52=20241116-23:49:21.539|56=TRADER1|10=117|
8=FIX.4.4|9=60|35=0|34=16|49=TRADER1|52=20241116-23:49:51.000|56=EXCHANGE1|10=104|
8=FIX.4.4|9=60|35=0|34=16|49=EXCHANGE1|52=20241116-23:49:51.540|56=TRADER1|10=113|
8=FIX.4.4|9=60|35=0|34=17|49=TRADER1|52=20241116-23:50:21.000|56=EXCHANGE1|10=094|
8=FIX.4.4|9=60|35=0|34=17|49=EXCHANGE1|52=20241116-23:50:21.542|56=TRADER1|10=105|
8=FIX.4.4|9=60|35=0|34=18|49=TRADER1|52=20241116-23:50:51.000|56=EXCHANGE1|10=098|
8=FIX.4.4|9=60|35=0|34=18|49=EXCHANGE1|52=20241116-23:50:51.540|56=TRADER1|10=107|
8=FIX.4.4|9=60|35=0|34=19|49=TRADER1|52=20241116-23:51:21.000|56=EXCHANGE1|10=097|
8=FIX.4.4|9=60|35=0|34=19|49=EXCHANGE1|52=20241116-23:51:21.541|56=TRADER1|10=107|
8=FIX.4.4|9=60|35=0|34=20|49=TRADER1|52=20241116-23:51:51.000|56=EXCHANGE1|10=092|
8=FIX.4.4|9=60|35=0|34=20|49=EXCHANGE1|52=20241116-23:51:51.540|56=TRADER1|10=101|
8=FIX.4.4|9=60|35=0|34=21|49=TRADER1|52=20241116-23:52:21.000|56=EXCHANGE1|10=091|
8=FIX.4.4|9=60|35=0|34=21|49=EXCHANGE1|52=20241116-23:52:21.537|56=TRADER1|10=106|
8=FIX.4.4|9=60|35=0|34=22|49=TRADER1|52=20241116-23:52:51.000|56=EXCHANGE1|10=095|
8=FIX.4.4|9=60|35=0|34=22|49=EXCHANGE1|52=20241116-23:52:51.539|56=TRADER1|10=112|
8=FIX.4.4|9=60|35=0|34=23|49=TRADER1|52=20241116-23:53:21.000|56=EXCHANGE1|10=094|
8=FIX.4.4|9=60|35=0|34=23|49=EXCHANGE1|52=20241116-23:53:21.539|56=TRADER1|10=111|
8=FIX.4.4|9=60|35=0|34=24|49=TRADER1|52=20241116-23:53:51.000|56=EXCHANGE1|10=098|
8=FIX.4.4|9=60|35=0|34=24|49=EXCHANGE1|52=20241116-23:53:51.538|56=TRADER1|10=114|
8=FIX.4.4|9=60|35=0|34=25|49=TRADER1|52=20241116-23:54:21.000|56=EXCHANGE1|10=097|
8=FIX.4.4|9=60|35=0|34=25|49=EXCHANGE1|52=20241116-23:54:21.535|56=TRADER1|10=110|
8=FIX.4.4|9=60|35=0|34=26|49=EXCHANGE1|52=20241116-23:54:51.538|56=TRADER1|10=117|
8=FIX.4.4|9=60|35=0|34=26|49=TRADER1|52=20241116-23:54:51.000|56=EXCHANGE1|10=101|
8=FIX.4.4|9=60|35=0|34=27|49=TRADER1|52=20241116-23:55:21.000|56=EXCHANGE1|10=100|
8=FIX.4.4|9=60|35=0|34=27|49=EXCHANGE1|52=20241116-23:55:21.538|56=TRADER1|10=116|
8=FIX.4.4|9=60|35=0|34=28|49=EXCHANGE1|52=20241116-23:55:51.541|56=TRADER1|10=114|
8=FIX.4.4|9=60|35=0|34=28|49=TRADER1|52=20241116-23:55:51.000|56=EXCHANGE1|10=104|
8=FIX.4.4|9=60|35=0|34=29|49=TRADER1|52=20241116-23:56:21.000|56=EXCHANGE1|10=103|
8=FIX.4.4|9=60|35=0|34=29|49=EXCHANGE1|52=20241116-23:56:21.542|56=TRADER1|10=114|
8=FIX.4.4|9=60|35=0|34=30|49=EXCHANGE1|52=20241116-23:56:51.541|56=TRADER1|10=108|
8=FIX.4.4|9=60|35=0|34=30|49=TRADER1|52=20241116-23:56:51.000|56=EXCHANGE1|10=098|
8=FIX.4.4|9=60|35=0|34=31|49=TRADER1|52=20241116-23:57:21.000|56=EXCHANGE1|10=097|
8=FIX.4.4|9=60|35=0|34=31|49=EXCHANGE1|52=20241116-23:57:21.537|56=TRADER1|10=112|
8=FIX.4.4|9=60|35=0|34=32|49=EXCHANGE1|52=20241116-23:57:51.535|56=TRADER1|10=114|
8=FIX.4.4|9=60|35=0|34=32|49=TRADER1|52=20241116-23:57:51.000|56=EXCHANGE1|10=101|
8=FIX.4.4|9=60|35=0|34=33|49=EXCHANGE1|52=20241116-23:58:21.534|56=TRADER1|10=112|
8=FIX.4.4|9=60|35=0|34=33|49=TRADER1|52=20241116-23:58:21.000|56=EXCHANGE1|10=100|
8=FIX.4.4|9=60|35=0|34=34|49=EXCHANGE1|52=20241116-23:58:51.533|56=TRADER1|10=115|
8=FIX.4.4|9=60|35=0|34=34|49=TRADER1|52=20241116-23:58:51.000|56=EXCHANGE1|10=104|
8=FIX.4.4|9=60|35=0|34=35|49=EXCHANGE1|52=20241116-23:59:21.536|56=TRADER1|10=117|
8=FIX.4.4|9=60|35=0|34=35|49=TRADER1|52=20241116-23:59:21.000|56=EXCHANGE1|10=103|
8=FIX.4.4|9=60|35=0|34=36|49=TRADER1|52=20241116-23:59:51.000|56=EXCHANGE1|10=107|
8=FIX.4.4|9=60|35=0|34=36|49=EXCHANGE1|52=20241116-23:59:51.534|56=TRADER1|10=119|
8=FIX.4.4|9=60|35=5|34=37|49=EXCHANGE1|52=20241116-23:59:59.539|56=TRADER1|10=138|
8=FIX.4.4|9=77|35=A|34=1|49=TRADER1|52=20241117-00:00:21.000|56=EXCHANGE1|98=0|108=30|141=Y|10=125|
8=FIX.4.4|9=77|35=A|34=1|49=EXCHANGE1|52=20241117-00:00:21.475|56=TRADER1|98=0|108=30|141=Y|10=141|
8=FIX.4.4|9=59|35=0|34=2|49=TRADER1|52=20241117-00:00:51.000|56=EXCHANGE1|10=042|
8=FIX.4.4|9=59|35=0|34=2|49=EXCHANGE1|52=20241117-00:00:51.535|56=TRADER1|10=055|
8=FIX.4.4|9=59|35=0|34=3|49=EXCHANGE1|52=20241117-00:01:21.536|56=TRADER1|10=055|
8=FIX.4.4|9=59|35=0|34=3|49=TRADER1|52=20241117-00:01:21.000|56=EXCHANGE1|10=041|
8=FIX.4.4|9=59|35=0|34=4|49=EXCHANGE1|52=20241117-00:01:51.531|56=TRADER1|10=054|
8=FIX.4.4|9=59|35=0|34=4|49=TRADER1|52=20241117-00:01:51.000|56=EXCHANGE1|10=045|
8=FIX.4.4|9=59|35=0|34=5|49=TRADER1|52=20241117-00:02:21.000|56=EXCHANGE1|10=044|
8=FIX.4.4|9=59|35=0|34=5|49=EXCHANGE1|52=20241117-00:02:21.529|56=TRADER1|10=060|
8=FIX.4.4|9=59|35=0|34=6|49=TRADER1|52=20241117-00:02:51.000|56=EXCHANGE1|10=048|
8=FIX.4.4|9=59|35=0|34=6|49=EXCHANGE1|52=20241117-00:02:51.528|56=TRADER1|10=063|
8=FIX.4.4|9=59|35=0|34=7|49=TRADER1|52=20241117-00:03:21.000|56=EXCHANGE1|10=047|
8=FIX.4.4|9=59|35=0|34=7|49=EXCHANGE1|52=20241117-00:03:21.532|56=TRADER1|10=057|
8=FIX.4.4|9=59|35=0|34=8|49=TRADER1|52=20241117-00:03:51.000|56=EXCHANGE1|10=051|
8=FIX.4.4|9=59|35=0|34=8|49=EXCHANGE1|52=20241117-00:03:51.533|56=TRADER1|10=062|
8=FIX.4.4|9=59|35=0|34=9|49=TRADER1|52=20241117-00:04:21.000|56=EXCHANGE1|10=050|
8=FIX.4.4|9=59|35=0|34=9|49=EXCHANGE1|52=20241117-00:04:21.529|56=TRADER1|10=066|
8=FIX.4.4|9=60|35=0|34=10|49=EXCHANGE1|52=20241117-00:04:51.549|56=TRADER1|10=103|
8=FIX.4.4|9=60|35=0|34=10|49=TRADER1|52=20241117-00:04:51.000|56=EXCHANGE1|10=085|
8=FIX.4.4|9=60|35=0|34=11|49=TRADER1|52=20241117-00:05:21.000|56=EXCHANGE1|10=084|
8=FIX.4.4|9=60|35=0|34=11|49=EXCHANGE1|52=20241117-00:05:22.532|56=TRADER1|10=095|
8=FIX.4.4|9=60|35=0|34=12|49=TRADER1|52=20241117-00:05:51.000|56=EXCHANGE1|10=088|
8=FIX.4.4|9=60|35=0|34=12|49=EXCHANGE1|52=20241117-00:05:52.533|56=TRADER1|10=100|
8=FIX.4.4|9=60|35=0|34=13|49=TRADER1|52=20241117-00:06:21.000|56=EXCHANGE1|10=087|
8=FIX.4.4|9=60|35=0|34=13|49=EXCHANGE1|52=20241117-00:06:22.532|56=TRADER1|10=098|
8=FIX.4.4|9=60|35=0|34=14|49=TRADER1|52=20241117-00:06:51.000|56=EXCHANGE1|10=091|
8=FIX.4.4|9=60|35=0|34=14|49=EXCHANGE1|52=20241117-00:06:52.526|56=TRADER1|10=105|
8=FIX.4.4|9=60|35=0|34=15|49=TRADER1|52=20241117-00:07:21.000|56=EXCHANGE1|10=090|
8=FIX.4.4|9=60|35=0|34=15|49=EXCHANGE1|52=20241117-00:07:22.527|56=TRADER1|10=105|
8=FIX.4.4|9=60|35=0|34=16|49=TRADER1|52=20241117-00:07:51.000|56=EXCHANGE1|10=094|
8=FIX.4.4|9=60|35=0|34=16|49=EXCHANGE1|52=20241117-00:07:52.531|56=TRADER1|10=104|
8=FIX.4.4|9=60|35=0|34=17|49=TRADER1|52=20241117-00:08:21.000|56=EXCHANGE1|10=093|
8=FIX.4.4|9=60|35=0|34=17|49=EXCHANGE1|52=20241117-00:08:22.528|56=TRADER1|10=109|
8=FIX.4.4|9=60|35=0|34=18|49=TRADER1|52=20241117-00:08:51.000|56=EXCHANGE1|10=097|
8=FIX.4.4|9=60|35=0|34=18|49=EXCHANGE1|52=20241117-00:08:52.530|56=TRADER1|10=106|
8=FIX.4.4|9=60|35=0|34=19|49=TRADER1|52=20241117-00:09:21.000|56=EXCHANGE1|10=096|
8=FIX.4.4|9=60|35=0|34=19|49=EXCHANGE1|52=20241117-00:09:22.558|56=TRADER1|10=115|
8=FIX.4.4|9=60|35=0|34=20|49=TRADER1|52=20241117-00:09:51.000|56=EXCHANGE1|10=091|
8=FIX.4.4|9=60|35=0|34=20|49=EXCHANGE1|52=20241117-00:09:52.565|56=TRADER1|10=108|
8=FIX.4.4|9=60|35=0|34=21|49=TRADER1|52=20241117-00:10:21.000|56=EXCHANGE1|10=081|
8=FIX.4.4|9=60|35=0|34=21|49=EXCHANGE1|52=20241117-00:10:22.568|56=TRADER1|10=101|
8=FIX.4.4|9=60|35=0|34=22|49=TRADER1|52=20241117-00:10:51.000|56=EXCHANGE1|10=085|
8=FIX.4.4|9=60|35=0|34=22|49=EXCHANGE1|52=20241117-00:10:52.569|56=TRADER1|10=106|
8=FIX.4.4|9=60|35=0|34=23|49=TRADER1|52=20241117-00:11:21.000|56=EXCHANGE1|10=084|
8=FIX.4.4|9=60|35=0|34=23|49=EXCHANGE1|52=20241117-00:11:22.564|56=TRADER1|10=100|
8=FIX.4.4|9=60|35=0|34=24|49=TRADER1|52=20241117-00:11:51.000|56=EXCHANGE1|10=088|
8=FIX.4.4|9=60|35=0|34=24|49=EXCHANGE1|52=20241117-00:11:52.565|56=TRADER1|10=105|
8=FIX.4.4|9=60|35=0|34=25|49=TRADER1|52=20241117-00:12:21.000|56=EXCHANGE1|10=087|
8=FIX.4.4|9=60|35=0|34=25|49=EXCHANGE1|52=20241117-00:12:22.566|56=TRADER1|10=105|
8=FIX.4.4|9=60|35=0|34=26|49=TRADER1|52=20241117-00:12:51.000|56=EXCHANGE1|10=091|
8=FIX.4.4|9=60|35=0|34=26|49=EXCHANGE1|52=20241117-00:12:52.567|56=TRADER1|10=110|
8=FIX.4.4|9=60|35=0|34=27|49=TRADER1|52=20241117-00:13:21.000|56=EXCHANGE1|10=090|
8=FIX.4.4|9=60|35=0|34=27|49=EXCHANGE1|52=20241117-00:13:22.565|56=TRADER1|10=107|
8=FIX.4.4|9=60|35=0|34=28|49=TRADER1|52=20241117-00:13:51.000|56=EXCHANGE1|10=094|
8=FIX.4.4|9=60|35=0|34=28|49=EXCHANGE1|52=20241117-00:13:52.568|56=TRADER1|10=114|
8=FIX.4.4|9=60|35=0|34=29|49=TRADER1|52=20241117-00:14:21.000|56=EXCHANGE1|10=093|
8=FIX.4.4|9=60|35=0|34=29|49=EXCHANGE1|52=20241117-00:14:22.569|56=TRADER1|10=114|
8=FIX.4.4|9=60|35=0|34=30|49=TRADER1|52=20241117-00:14:51.000|56=EXCHANGE1|10=088|
8=FIX.4.4|9=60|35=0|34=30|49=EXCHANGE1|52=20241117-00:14:52.565|56=TRADER1|10=105|
8=FIX.4.4|9=60|35=0|34=31|49=TRADER1|52=20241117-00:15:21.000|56=EXCHANGE1|10=087|
8=FIX.4.4|9=60|35=0|34=31|49=EXCHANGE1|52=20241117-00:15:22.566|56=TRADER1|10=105|
8=FIX.4.4|9=60|35=0|34=32|49=TRADER1|52=20241117-00:15:51.000|56=EXCHANGE1|10=091|
8=FIX.4.4|9=60|35=0|34=32|49=EXCHANGE1|52=20241117-00:15:52.570|56=TRADER1|10=104|
8=FIX.4.4|9=60|35=0|34=33|49=TRADER1|52=20241117-00:16:21.000|56=EXCHANGE1|10=090|
8=FIX.4.4|9=60|35=0|34=33|49=EXCHANGE1|52=20241117-00:16:22.568|56=TRADER1|10=110|
8=FIX.4.4|9=60|35=0|34=34|49=TRADER1|52=20241117-00:16:51.000|56=EXCHANGE1|10=094|
8=FIX.4.4|9=60|35=0|34=34|49=EXCHANGE1|52=20241117-00:16:52.564|56=TRADER1|10=110|
8=FIX.4.4|9=60|35=0|34=35|49=TRADER1|52=20241117-00:17:21.000|56=EXCHANGE1|10=093|
8=FIX.4.4|9=60|35=0|34=35|49=EXCHANGE1|52=20241117-00:17:22.567|56=TRADER1|10=112|
8=FIX.4.4|9=60|35=0|34=36|49=TRADER1|52=20241117-00:17:51.000|56=EXCHANGE1|10=097|
8=FIX.4.4|9=60|35=0|34=36|49=EXCHANGE1|52=20241117-00:17:52.563|56=TRADER1|10=112|
8=FIX.4.4|9=60|35=0|34=37|49=TRADER1|52=20241117-00:18:21.000|56=EXCHANGE1|10=096|
8=FIX.4.4|9=60|35=0|34=37|49=EXCHANGE1|52=20241117-00:18:22.567|56=TRADER1|10=115|
8=FIX.4.4|9=60|35=0|34=38|49=TRADER1|52=20241117-00:18:51.000|56=EXCHANGE1|10=100|
8=FIX.4.4|9=60|35=0|34=38|49=EXCHANGE1|52=20241117-00:18:52.564|56=TRADER1|10=116|
8=FIX.4.4|9=60|35=0|34=39|49=TRADER1|52=20241117-00:19:21.000|56=EXCHANGE1|10=099|
8=FIX.4.4|9=60|35=0|34=39|49=EXCHANGE1|52=20241117-00:19:22.569|56=TRADER1|10=120|
8=FIX.4.4|9=60|35=0|34=40|49=TRADER1|52=20241117-00:19:51.000|56=EXCHANGE1|10=094|
8=FIX.4.4|9=60|35=0|34=40|49=EXCHANGE1|52=20241117-00:19:52.564|56=TRADER1|10=110|
8=FIX.4.4|9=60|35=0|34=41|49=TRADER1|52=20241117-00:20:21.000|56=EXCHANGE1|10=084|
8=FIX.4.4|9=60|35=0|34=41|49=EXCHANGE1|52=20241117-00:20:22.567|56=TRADER1|10=103|
8=FIX.4.4|9=60|35=0|34=42|49=TRADER1|52=20241117-00:20:51.000|56=EXCHANGE1|10=088|
8=FIX.4.4|9=60|35=0|34=42|49=EXCHANGE1|52=20241117-00:20:52.568|56=TRADER1|10=108|
8=FIX.4.4|9=60|35=0|34=43|49=TRADER1|52=20241117-00:21:21.000|56=EXCHANGE1|10=087|
8=FIX.4.4|9=60|35=0|34=43|49=EXCHANGE1|52=20241117-00:21:22.567|56=TRADER1|10=106|
8=FIX.4.4|9=60|35=0|34=44|49=TRADER1|52=20241117-00:21:51.000|56=EXCHANGE1|10=091|
8=FIX.4.4|9=60|35=0|34=44|49=EXCHANGE1|52=20241117-00:21:52.565|56=TRADER1|10=108|
8=FIX.4.4|9=60|35=0|34=45|49=TRADER1|52=20241117-00:22:21.000|56=EXCHANGE1|10=090|
8=FIX.4.4|9=60|35=0|34=45|49=EXCHANGE1|52=20241117-00:22:22.568|56=TRADER1|10=110|
8=FIX.4.4|9=60|35=0|34=46|49=TRADER1|52=20241117-00:22:51.000|56=EXCHANGE1|10=094|
8=FIX.4.4|9=60|35=0|34=46|49=EXCHANGE1|52=20241117-00:22:52.568|56=TRADER1|10=114|
8=FIX.4.4|9=60|35=0|34=47|49=TRADER1|52=20241117-00:23:21.000|56=EXCHANGE1|10=093|
8=FIX.4.4|9=60|35=0|34=47|49=EXCHANGE1|52=20241117-00:23:22.567|56=TRADER1|10=112|
8=FIX.4.4|9=60|35=0|34=48|49=TRADER1|52=20241117-00:23:51.000|56=EXCHANGE1|10=097|
8=FIX.4.4|9=60|35=0|34=48|49=EXCHANGE1|52=20241117-00:23:52.567|56=TRADER1|10=116|
8=FIX.4.4|9=60|35=0|34=49|49=TRADER1|52=20241117-00:24:21.000|56=EXCHANGE1|10=096|
8=FIX.4.4|9=60|35=0|34=49|49=EXCHANGE1|52=20241117-00:24:22.568|56=TRADER1|10=116|
8=FIX.4.4|9=60|35=0|34=50|49=TRADER1|52=20241117-00:24:51.000|56=EXCHANGE1|10=091|
8=FIX.4.4|9=60|35=0|34=50|49=EXCHANGE1|52=20241117-00:24:52.566|56=TRADER1|10=109|
8=FIX.4.4|9=60|35=0|34=51|49=TRADER1|52=20241117-00:25:21.000|56=EXCHANGE1|10=090|
8=FIX.4.4|9=60|35=0|34=51|49=EXCHANGE1|52=20241117-00:25:22.568|56=TRADER1|10=110|
8=FIX.4.4|9=60|35=0|34=52|49=TRADER1|52=20241117-00:25:51.000|56=EXCHANGE1|10=094|
8=FIX.4.4|9=60|35=0|34=52|49=EXCHANGE1|52=20241117-00:25:52.565|56=TRADER1|10=111|
8=FIX.4.4|9=60|35=0|34=53|49=TRADER1|52=20241117-00:26:21.000|56=EXCHANGE1|10=093|
8=FIX.4.4|9=60|35=0|34=53|49=EXCHANGE1|52=20241117-00:26:22.567|56=TRADER1|10=112|
8=FIX.4.4|9=60|35=0|34=54|49=TRADER1|52=20241117-00:26:51.000|56=EXCHANGE1|10=097|
8=FIX.4.4|9=60|35=0|34=54|49=EXCHANGE1|52=20241117-00:26:52.568|56=TRADER1|10=117|
8=FIX.4.4|9=60|35=0|34=55|49=TRADER1|52=20241117-00:27:21.000|56=EXCHANGE1|10=096|
8=FIX.4.4|9=60|35=0|34=55|49=EXCHANGE1|52=20241117-00:27:22.567|56=TRADER1|10=115|
8=FIX.4.4|9=60|35=0|34=56|49=TRADER1|52=20241117-00:27:51.000|56=EXCHANGE1|10=100|
8=FIX.4.4|9=60|35=0|34=56|49=EXCHANGE1|52=20241117-00:27:52.567|56=TRADER1|10=119|
8=FIX.4.4|9=60|35=0|34=57|49=TRADER1|52=20241117-00:28:21.000|56=EXCHANGE1|10=099|
8=FIX.4.4|9=60|35=0|34=57|49=EXCHANGE1|52=20241117-00:28:22.568|56=TRADER1|10=119|
8=FIX.4.4|9=60|35=0|34=58|49=TRADER1|52=20241117-00:28:51.000|56=EXCHANGE1|10=103|
8=FIX.4.4|9=60|35=0|34=58|49=EXCHANGE1|52=20241117-00:28:52.563|56=TRADER1|10=118|
8=FIX.4.4|9=60|35=0|34=59|49=TRADER1|52=20241117-00:29:21.000|56=EXCHANGE1|10=102|
8=FIX.4.4|9=60|35=0|34=59|49=EXCHANGE1|52=20241117-00:29:22.566|56=TRADER1|10=120|
8=FIX.4.4|9=60|35=0|34=60|49=TRADER1|52=20241117-00:29:51.000|56=EXCHANGE1|10=097|
8=FIX.4.4|9=60|35=0|34=60|49=EXCHANGE1|52=20241117-00:29:52.566|56=TRADER1|10=115|
8=FIX.4.4|9=60|35=0|34=61|49=TRADER1|52=20241117-00:30:21.000|56=EXCHANGE1|10=087|
8=FIX.4.4|9=60|35=0|34=61|49=EXCHANGE1|52=20241117-00:30:22.568|56=TRADER1|10=107|
8=FIX.4.4|9=60|35=0|34=62|49=TRADER1|52=20241117-00:30:51.000|56=EXCHANGE1|10=091|
8=FIX.4.4|9=60|35=0|34=62|49=EXCHANGE1|52=20241117-00:30:52.568|56=TRADER1|10=111|
8=FIX.4.4|9=60|35=0|34=63|49=TRADER1|52=20241117-00:31:21.000|56=EXCHANGE1|10=090|
8=FIX.4.4|9=60|35=0|34=63|49=EXCHANGE1|52=20241117-00:31:22.567|56=TRADER1|10=109|
8=FIX.4.4|9=60|35=0|34=64|49=TRADER1|52=20241117-00:31:51.000|56=EXCHANGE1|10=094|
8=FIX.4.4|9=60|35=0|34=64|49=EXCHANGE1|52=20241117-00:31:52.563|56=TRADER1|10=109|
8=FIX.4.4|9=60|35=0|34=65|49=TRADER1|52=20241117-00:32:21.000|56=EXCHANGE1|10=093|
8=FIX.4.4|9=60|35=0|34=65|49=EXCHANGE1|52=20241117-00:32:22.567|56=TRADER1|10=112|
8=FIX.4.4|9=60|35=0|34=66|49=TRADER1|52=20241117-00:32:51.000|56=EXCHANGE1|10=097|
8=FIX.4.4|9=60|35=0|34=66|49=EXCHANGE1|52=20241117-00:32:52.568|56=TRADER1|10=117|
8=FIX.4.4|9=60|35=0|34=67|49=TRADER1|52=20241117-00:33:21.000|56=EXCHANGE1|10=096|
8=FIX.4.4|9=60|35=0|34=67|49=EXCHANGE1|52=20241117-00:33:22.567|56=TRADER1|10=115|
8=FIX.4.4|9=60|35=0|34=68|49=TRADER1|52=20241117-00:33:51.000|56=EXCHANGE1|10=100|
8=FIX.4.4|9=60|35=0|34=68|49=EXCHANGE1|52=20241117-00:33:52.566|56=TRADER1|10=118|
8=FIX.4.4|9=60|35=0|34=69|49=TRADER1|52=20241117-00:34:21.000|56=EXCHANGE1|10=099|
8=FIX.4.4|9=60|35=0|34=69|49=EXCHANGE1|52=20241117-00:34:22.566|56=TRADER1|10=117|
8=FIX.4.4|9=60|35=0|34=70|49=TRADER1|52=20241117-00:34:51.000|56=EXCHANGE1|10=094|
8=FIX.4.4|9=60|35=0|34=70|49=EXCHANGE1|52=20241117-00:34:52.569|56=TRADER1|10=115|
8=FIX.4.4|9=60|35=0|34=71|49=TRADER1|52=20241117-00:35:21.000|56=EXCHANGE1|10=093|
8=FIX.4.4|9=60|35=0|34=71|49=EXCHANGE1|52=20241117-00:35:22.579|56=TRADER1|10=115|
8=FIX.4.4|9=60|35=0|34=72|49=TRADER1|52=20241117-00:35:51.000|56=EXCHANGE1|10=097|
8=FIX.4.4|9=60|35=0|34=72|49=EXCHANGE1|52=20241117-00:35:52.582|56=TRADER1|10=113|
8=FIX.4.4|9=60|35=0|34=73|49=TRADER1|52=20241117-00:36:21.000|56=EXCHANGE1|10=096|
8=FIX.4.4|9=60|35=0|34=73|49=EXCHANGE1|52=20241117-00:36:22.585|56=TRADER1|10=115|
8=FIX.4.4|9=60|35=0|34=74|49=TRADER1|52=20241117-00:36:51.000|56=EXCHANGE1|10=100|
8=FIX.4.4|9=60|35=0|34=74|49=EXCHANGE1|52=20241117-00:36:52.584|56=TRADER1|10=118|
8=FIX.4.4|9=60|35=0|34=75|49=TRADER1|52=20241117-00:37:21.000|56=EXCHANGE1|10=099|
8=FIX.4.4|9=60|35=0|34=75|49=EXCHANGE1|52=20241117-00:37:22.585|56=TRADER1|10=118|
8=FIX.4.4|9=60|35=0|34=76|49=TRADER1|52=20241117-00:37:51.000|56=EXCHANGE1|10=103|
8=FIX.4.4|9=60|35=0|34=76|49=EXCHANGE1|52=20241117-00:37:52.583|56=TRADER1|10=120|
8=FIX.4.4|9=60|35=0|34=77|49=TRADER1|52=20241117-00:38:21.000|56=EXCHANGE1|10=102|
8=FIX.4.4|9=60|35=0|34=77|49=EXCHANGE1|52=20241117-00:38:22.586|56=TRADER1|10=122|
8=FIX.4.4|9=60|35=0|34=78|49=TRADER1|52=20241117-00:38:51.000|56=EXCHANGE1|10=106|
8=FIX.4.4|9=60|35=0|34=78|49=EXCHANGE1|52=20241117-00:38:52.585|56=TRADER1|10=125|
8=FIX.4.4|9=60|35=0|34=79|49=TRADER1|52=20241117-00:39:21.000|56=EXCHANGE1|10=105|
8=FIX.4.4|9=60|35=0|34=79|49=EXCHANGE1|52=20241117-00:39:22.586|56=TRADER1|10=125|
8=FIX.4.4|9=60|35=0|34=80|49=TRADER1|52=20241117-00:39:51.000|56=EXCHANGE1|10=100|
8=FIX.4.4|9=60|35=0|34=80|49=EXCHANGE1|52=20241117-00:39:52.584|56=TRADER1|10=118|
8=FIX.4.4|9=60|35=0|34=81|49=TRADER1|52=20241117-00:40:21.000|56=EXCHANGE1|10=090|
8=FIX.4.4|9=60|35=0|34=81|49=EXCHANGE1|52=20241117-00:40:22.584|56=TRADER1|10=108|
8=FIX.4.4|9=60|35=0|34=82|49=TRADER1|52=20241117-00:40:51.000|56=EXCHANGE1|10=094|
8=FIX.4.4|9=60|35=0|34=82|49=EXCHANGE1|52=20241117-00:40:52.581|56=TRADER1|10=109|
8=FIX.4.4|9=60|35=0|34=83|49=TRADER1|52=20241117-00:41:21.000|56=EXCHANGE1|10=093|
8=FIX.4.4|9=60|35=0|34=83|49=EXCHANGE1|52=20241117-00:41:22.588|56=TRADER1|10=115|
8=FIX.4.4|9=60|35=0|34=84|49=TRADER1|52=20241117-00:41:51.000|56=EXCHANGE1|10=097|
8=FIX.4.4|9=60|35=0|34=84|49=EXCHANGE1|52=20241117-00:41:52.587|56=TRADER1|10=118|
8=FIX.4.4|9=60|35=0|34=85|49=TRADER1|52=20241117-00:42:21.000|56=EXCHANGE1|10=096|
8=FIX.4.4|9=60|35=0|34=85|49=EXCHANGE1|52=20241117-00:42:22.588|56=TRADER1|10=118|
8=FIX.4.4|9=60|35=0|34=86|49=TRADER1|52=20241117-00:42:51.000|56=EXCHANGE1|10=100|
8=FIX.4.4|9=60|35=0|34=86|49=EXCHANGE1|52=20241117-00:42:52.586|56=TRADER1|10=120|
8=FIX.4.4|9=60|35=0|34=87|49=TRADER1|52=20241117-00:43:21.000|56=EXCHANGE1|10=099|
8=FIX.4.4|9=60|35=0|34=87|49=EXCHANGE1|52=20241117-00:43:22.587|56=TRADER1|10=120|
8=FIX.4.4|9=60|35=0|34=88|49=TRADER1|52=20241117-00:43:51.000|56=EXCHANGE1|10=103|
8=FIX.4.4|9=60|35=0|34=88|49=EXCHANGE1|52=20241117-00:43:52.586|56=TRADER1|10=123|
8=FIX.4.4|9=60|35=0|34=89|49=TRADER1|52=20241117-00:44:21.000|56=EXCHANGE1|10=102|
8=FIX.4.4|9=60|35=0|34=89|49=EXCHANGE1|52=20241117-00:44:22.584|56=TRADER1|10=120|
8=FIX.4.4|9=60|35=0|34=90|49=TRADER1|52=20241117-00:44:51.000|56=EXCHANGE1|10=097|
8=FIX.4.4|9=60|35=0|34=90|49=EXCHANGE1|52=20241117-00:44:52.588|56=TRADER1|10=119|
8=FIX.4.4|9=60|35=0|34=91|49=TRADER1|52=20241117-00:45:21.000|56=EXCHANGE1|10=096|
8=FIX.4.4|9=60|35=0|34=91|49=EXCHANGE1|52=20241117-00:45:22.588|56=TRADER1|10=118|
8=FIX.4.4|9=60|35=0|34=92|49=TRADER1|52=20241117-00:45:51.000|56=EXCHANGE1|10=100|
8=FIX.4.4|9=60|35=0|34=92|49=EXCHANGE1|52=20241117-00:45:52.586|56=TRADER1|10=120|
8=FIX.4.4|9=60|35=0|34=93|49=TRADER1|52=20241117-00:46:21.000|56=EXCHANGE1|10=099|
8=FIX.4.4|9=60|35=0|34=93|49=EXCHANGE1|52=20241117-00:46:22.590|56=TRADER1|10=114|
8=FIX.4.4|9=60|35=0|34=94|49=TRADER1|52=20241117-00:46:51.000|56=EXCHANGE1|10=103|
8=FIX.4.4|9=60|35=0|34=94|49=EXCHANGE1|52=20241117-00:46:52.588|56=TRADER1|10=125|
8=FIX.4.4|9=60|35=0|34=95|49=TRADER1|52=20241117-00:47:21.000|56=EXCHANGE1|10=102|
8=FIX.4.4|9=60|35=0|34=95|49=EXCHANGE1|52=20241117-00:47:22.587|56=TRADER1|10=123|
8=FIX.4.4|9=60|35=0|34=96|49=TRADER1|52=20241117-00:47:51.000|56=EXCHANGE1|10=106|
8=FIX.4.4|9=60|35=0|34=96|49=EXCHANGE1|52=20241117-00:47:52.586|56=TRADER1|10=126|
8=FIX.4.4|9=60|35=0|34=97|49=TRADER1|52=20241117-00:48:21.000|56=EXCHANGE1|10=105|
8=FIX.4.4|9=60|35=0|34=97|49=EXCHANGE1|52=20241117-00:48:22.586|56=TRADER1|10=125|
8=FIX.4.4|9=60|35=0|34=98|49=TRADER1|52=20241117-00:48:51.000|56=EXCHANGE1|10=109|
8=FIX.4.4|9=60|35=0|34=98|49=EXCHANGE1|52=20241117-00:48:52.589|56=TRADER1|10=132|
8=FIX.4.4|9=60|35=0|34=99|49=TRADER1|52=20241117-00:49:21.000|56=EXCHANGE1|10=108|
8=FIX.4.4|9=60|35=0|34=99|49=EXCHANGE1|52=20241117-00:49:22.585|56=TRADER1|10=127|
8=FIX.4.4|9=61|35=0|34=100|49=TRADER1|52=20241117-00:49:51.000|56=EXCHANGE1|10=143|
8=FIX.4.4|9=61|35=0|34=100|49=EXCHANGE1|52=20241117-00:49:52.584|56=TRADER1|10=161|
8=FIX.4.4|9=61|35=0|34=101|49=TRADER1|52=20241117-00:50:21.000|56=EXCHANGE1|10=133|
8=FIX.4.4|9=61|35=0|34=101|49=EXCHANGE1|52=20241117-00:50:22.589|56=TRADER1|10=156|
