8=FIX.4.4|9=78|35=A|34=1|49=DBUTCHER1|52=20241117-01:17:12.000|56=GoochLit|98=0|108=30|141=Y|10=187|
8=FIX.4.4|9=78|35=A|34=1|49=GoochLit|52=20241117-01:17:12.334|56=DBUTCHER1|98=0|108=30|141=Y|10=197|
8=FIX.4.4|9=60|35=0|34=2|49=GoochLit|52=20241117-01:17:42.836|56=DBUTCHER1|10=112|
8=FIX.4.4|9=60|35=0|34=2|49=DBUTCHER1|52=20241117-01:17:42.000|56=GoochLit|10=095|
8=FIX.4.4|9=60|35=0|34=3|49=GoochLit|52=20241117-01:18:12.835|56=DBUTCHER1|10=110|
8=FIX.4.4|9=60|35=0|34=3|49=DBUTCHER1|52=20241117-01:18:12.000|56=GoochLit|10=094|
8=FIX.4.4|9=60|35=0|34=4|49=DBUTCHER1|52=20241117-01:18:42.000|56=GoochLit|10=098|
8=FIX.4.4|9=60|35=0|34=4|49=GoochLit|52=20241117-01:18:42.828|56=DBUTCHER1|10=116|
8=FIX.4.4|9=60|35=0|34=5|49=DBUTCHER1|52=20241117-01:19:12.000|56=GoochLit|10=097|
8=FIX.4.4|9=60|35=0|34=5|49=GoochLit|52=20241117-01:19:12.831|56=DBUTCHER1|10=109|
8=FIX.4.4|9=60|35=0|34=6|49=DBUTCHER1|52=20241117-01:19:42.000|56=GoochLit|10=101|
8=FIX.4.4|9=60|35=0|34=6|49=GoochLit|52=20241117-01:19:42.836|56=DBUTCHER1|10=118|
8=FIX.4.4|9=60|35=0|34=7|49=DBUTCHER1|52=20241117-01:20:12.000|56=GoochLit|10=091|
8=FIX.4.4|9=60|35=0|34=7|49=GoochLit|52=20241117-01:20:12.831|56=DBUTCHER1|10=103|
8=FIX.4.4|9=60|35=0|34=8|49=DBUTCHER1|52=20241117-01:20:42.000|56=GoochLit|10=095|
8=FIX.4.4|9=60|35=0|34=8|49=GoochLit|52=20241117-01:20:42.832|56=DBUTCHER1|10=108|
8=FIX.4.4|9=60|35=0|34=9|49=DBUTCHER1|52=20241117-01:21:12.000|56=GoochLit|10=094|
8=FIX.4.4|9=60|35=0|34=9|49=GoochLit|52=20241117-01:21:12.826|56=DBUTCHER1|10=110|
8=FIX.4.4|9=61|35=0|34=10|49=DBUTCHER1|52=20241117-01:21:42.000|56=GoochLit|10=138|
8=FIX.4.4|9=61|35=0|34=10|49=GoochLit|52=20241117-01:21:42.830|56=DBUTCHER1|10=149|
8=FIX.4.4|9=61|35=0|34=11|49=DBUTCHER1|52=20241117-01:22:12.000|56=GoochLit|10=137|
8=FIX.4.4|9=61|35=0|34=11|49=GoochLit|52=20241117-01:22:12.831|56=DBUTCHER1|10=149|
8=FIX.4.4|9=61|35=0|34=12|49=DBUTCHER1|52=20241117-01:22:42.000|56=GoochLit|10=141|
8=FIX.4.4|9=61|35=0|34=12|49=GoochLit|52=20241117-01:22:42.829|56=DBUTCHER1|10=160|
8=FIX.4.4|9=61|35=0|34=13|49=DBUTCHER1|52=20241117-01:23:12.000|56=GoochLit|10=140|
8=FIX.4.4|9=61|35=0|34=13|49=GoochLit|52=20241117-01:23:12.829|56=DBUTCHER1|10=159|
8=FIX.4.4|9=61|35=0|34=14|49=DBUTCHER1|52=20241117-01:23:42.000|56=GoochLit|10=144|
8=FIX.4.4|9=61|35=0|34=14|49=GoochLit|52=20241117-01:23:42.832|56=DBUTCHER1|10=157|
