8=FIX.4.4|9=77|35=A|34=1|49=GoochLit|52=20241117-01:17:12.329|56=IPETKOV1|98=0|108=30|141=Y|10=153|8=FIX.4.4|9=59|35=0|34=2|49=GoochLit|52=20241117-01:17:42.833|56=IPETKOV1|10=070|8=FIX.4.4|9=59|35=0|34=3|49=GoochLit|52=20241117-01:18:12.832|56=IPETKOV1|10=068|8=FIX.4.4|9=59|35=0|34=4|49=GoochLit|52=20241117-01:18:42.828|56=IPETKOV1|10=077|8=FIX.4.4|9=59|35=0|34=5|49=GoochLit|52=20241117-01:19:12.830|56=IPETKOV1|10=069|8=FIX.4.4|9=59|35=0|34=6|49=GoochLit|52=20241117-01:19:42.832|56=IPETKOV1|10=075|8=FIX.4.4|9=59|35=0|34=7|49=GoochLit|52=20241117-01:20:12.829|56=IPETKOV1|10=071|8=FIX.4.4|9=112|35=8|34=8|49=GoochLit|52=20241117-01:20:16.042|56=IPETKOV1|6=150|14=100|17=54321|37=12345|39=2|54=1|150=0|151=0|10=180|8=FIX.4.4|9=59|35=0|34=9|49=GoochLit|52=20241117-01:20:46.834|56=IPETKOV1|10=076|8=FIX.4.4|9=60|35=0|34=10|49=GoochLit|52=20241117-01:21:16.831|56=IPETKOV1|10=103|8=FIX.4.4|9=60|35=0|34=11|49=GoochLit|52=20241117-01:21:46.831|56=IPETKOV1|10=107|8=FIX.4.4|9=60|35=0|34=12|49=GoochLit|52=20241117-01:22:16.828|56=IPETKOV1|10=112|8=FIX.4.4|9=60|35=0|34=13|49=GoochLit|52=20241117-01:22:46.831|56=IPETKOV1|10=110|8=FIX.4.4|9=60|35=0|34=14|49=GoochLit|52=20241117-01:23:16.831|56=IPETKOV1|10=109|8=FIX.4.4|9=60|35=0|34=15|49=GoochLit|52=20241117-01:23:46.830|56=IPETKOV1|10=112|